:020000021000EC
:10E000000C9446F00C9465F00C9465F00C947FF140
:10E010000C9465F00C9465F00C9465F00C9465F02C
:10E020000C9465F00C9465F00C9465F00C9465F01C
:10E030000C9465F00C9465F00C9465F00C9465F00C
:10E040000C9465F00C9465F00C9465F00C9465F0FC
:10E050000C9465F00C9465F00C9465F00C9465F0EC
:10E060000C9465F00C9465F00C9465F00C9465F0DC
:10E070000C9465F00C9465F00C9465F00C9465F0CC
:10E080000C9465F00C9465F00C9465F011241FBE9F
:10E09000CFEFD0E4DEBFCDBF12E0A0E0B1E0E8EA10
:10E0A000F3EF01E00BBF02C007900D92A032B10761
:10E0B000D9F722E0A0E2B2E001C01D92A836B20773
:10E0C000E1F70E946BF60C94D2F90C9400F0CF9318
:10E0D000DF9360914802635067FD81C080914502E3
:10E0E000CCE0D0E0C81BD109C45BDD4F8091440275
:10E0F0008D3209F062C0683009F06FC083EC809304
:10E1000038028AE58093010110922002888180768E
:10E1100021F0CE010E943AF33DC08A811092410263
:10E120009981911106C01092420221E432E082E00E
:10E130002CC0953019F48093490219C0963089F4A7
:10E140008B81813021F0823011F0833029F4CE01AF
:10E150000E9409F390E002C090E480E090932002D6
:10E1600019C0983079F0993031F480934B0221E452
:10E1700032E080E00AC081E09A3009F080E021E4DA
:10E1800032E003C02BE432E081E030934702209379
:10E19000460209C08F3F39F4988197FD8E8190E83F
:10E1A0009093200207C09F81911104C09E8198170F
:10E1B00008F4892F8093000110C08091200287FF0E
:10E1C0000CC0CE010E942BF58F3F21F48EE180938D
:10E1D000010103C081111092000110924802809148
:10E1E000010184FF57C0809100018F3F09F452C0A4
:10E1F000C82F893008F0C8E08C1B809300019091F3
:10E20000380288E8892780933802CC2309F44DC06E
:10E210002091200227FF09C06C2F89E392E00E9421
:10E22000D0F4C82F893080F523C0809146029091A8
:10E23000470226FF0AC0A9E3B2E0FC012C2F34916B
:10E240003D9331962150D9F708C0DC01E9E3F2E0B3
:10E250002C2F3D9131932150E1F72FEF2C0F30E01F
:10E260002F5F3F4F820F931F909347028093460288
:10E270006C2F89E392E00E947BF1CC5FCC3041F0BF
:10E280008FEF8093000104C08FEF80930001CEE1F7
:10E29000C093010184E193B19C7071F48150D9F76E
:10E2A000109249021092430207C060E089E392E0B5
:10E2B0000E947BF1C4E0E4CFDF91CF910895E9E6BD
:10E2C000F0E0808180638083EA9A0895A82FB92FB7
:10E2D00080E090E041E050EA609530E009C02D9187
:10E2E00082279795879510F084279527305EC8F38D
:10E2F0006F5FA8F30895EADF8D939D930895CF9300
:10E30000CFB7CF93C3951B9BE9F71B9B09C01B9B02
:10E3100007C01B9B05C01B9B03C01B9B01C0A1C06A
:10E32000DF93C0914502DD27C45BDD4F1B9B02C01C
:10E33000DF91EBCF2F930F931F9303B12FEF03FBCD
:10E3400020F94F933F9313B14FEF012703FB21F9BE
:10E350003BE031C04E7F012F13B1216028C0102F48
:10E360004D7F2260000003B129C04B7F2460012F44
:10E37000000013B12BC013B1477F28602AC04F7E25
:10E3800003B120612CC04F7D13B120622FC04F7BA1
:10E3900003B1206432C0422703B149934FEF00001C
:10E3A000102713FB20F913B11C70C9F1297F91F2DA
:10E3B000012703FB21F903B1237F89F2315058F182
:10E3C000102713FB22F913B1277E79F2012703FBF3
:10E3D00023F92F7C81F203B1102713FB24F92F7945
:10E3E00071F200C013B1012703FB25F92F7359F215
:10E3F00000C003B1102713FB26F9223040F200C001
:10E4000013B1012703FB27F9243028F64F77206842
:10E4100013B10000F9CF14E01CBB002717C03B501C
:10E420003195C31BD04014E01CBB0881033CE9F0CC
:10E430000B34D9F0209143021981110F1213EDCF43
:10E44000093641F10D3211F0013E39F700934A02CD
:10E450003F914F911F910F912F91DF91CCB3C2FD4E
:10E4600051CFCF91CFBFCF91189520914A0222234F
:10E4700079F310914802112311F5343012F13093E1
:10E48000480220934402109145023BE0311B309337
:10E49000450217C00091480201308CF40AE5309122
:10E4A000010134FD10C000930101C8E3D2E00FC0A8
:10E4B0002795A8F45150A9F4220F0000F9CF4AE59E
:10E4C00003C042ED01C0432FC4E1D0E032E014B1FB
:10E4D0001C602B9A14B905B120E41CE05F9301275E
:10E4E00056E005B9279520F4515021F4220FF9CFB9
:10E4F000012756E000003B5A05B9D0F2279528F4D1
:10E50000515029F4220F0000F9CF012756E027953A
:10E5100005B920F4515021F4220FF9CF012756E01C
:10E520002991332305B921F6037F10914902110F78
:10E53000C651D04005B911F01093430214E01CBB42
:10E54000086014B1137F402F437F5F9100C000C06B
:10E5500005B914B945B97CCF90E0981739F036B5B4
:10E5600026B5231B2C33E0F39F5FF7CF0895CF939D
:10E57000C82F8A3019F48DE00E94B7F28091C00054
:10E5800085FFFCCFC093C6008C2FCC0F990BCF9189
:10E5900008958091C00087FFFCCF8091C60090E075
:10E5A00008951092C5008DE48093C40088E18093A3
:10E5B000C10086E08093C200E2E6F2E080E191E0F3
:10E5C000938382839583848382E091E09183808327
:10E5D0000895FC018281813099F050F08230C1F4BD
:10E5E00082E491E090934702809346028EE0089582
:10E5F0008CE691E0909347028093460284E0089570
:10E6000080E591E090934702809346028CE1089563
:10E610000895FC019381923039F0933069F0913084
:10E6200071F480E391E002C08EE191E090934702A3
:10E630008093460282E10895CF010C94E9F280E7CD
:10E6400091E09F938F9385E791E09F938F930E9432
:10E65000E8F68EE791E09F938F930E94E8F68AE0B8
:10E6600090E00E94FCF60F900F900F900F900F908B
:10E670000F900895CF93DF93EC0189818130C1F42D
:10E6800080E791E09F938F9385E791E09F938F932D
:10E690000E94E8F68FE991E09F938F930E94E8F63D
:10E6A0008AE090E00E94FCF610922E0241981DC074
:10E6B000823011F580E791E09F938F9385E791E099
:10E6C0009F938F930E94E8F68CE991E09F938F933C
:10E6D0000E94E8F68AE090E00E94FCF681E090E07B
:10E6E0009093220280932102419A0F900F900F90F5
:10E6F0000F900F900F904AC1833009F05DC080E702
:10E7000091E09F938F9385E791E09F938F930E9471
:10E71000E8F68D811F928F938C811F928F938B814E
:10E720001F928F938A811F928F938AEA91E09F9321
:10E730008F930E94E8F68AE090E00E94FCF68DB785
:10E740009EB70E960FB6F8949EBF0FBE8DBF8A81FE
:10E75000803501F118F4803331F018C1883571F03B
:10E760008C3A09F013C1EC81F0E0EE0FFF1F81E25B
:10E7700080935700E491E093330206C18B81882394
:10E7800031F0883009F000C1E3E0F0E00EC0E1E0D4
:10E79000F0E00BC08B81882331F0883009F0F4C0A1
:10E7A000E2E0F0E002C0E0E0F0E089E080935700B2
:10E7B000849180933302E8C0843029F580912E0241
:10E7C00081110EC08A819B81092E000CAA0BBB0B04
:10E7D00080932A0290932B02A0932C02B0932D02D7
:10E7E0008E819F81909329028093280282E08093FA
:10E7F0002F0207B600FCFDCFF999FECF81E180938F
:10E800005700E89582C08730D1F480912E028111A3
:10E810000EC08A819B81092E000CAA0BBB0B809332
:10E820002A0290932B02A0932C02B0932D028E818A
:10E830009F81909329028093280283E064C08530F1
:10E8400069F480E791E09F938F9385E791E09F9330
:10E850008F930E94E8F681ED91E079C0863091F5C2
:10E8600080912E0281110EC08A819B81092E000C9D
:10E87000AA0BBB0B80932A0290932B02A0932C022D
:10E88000B0932D023C812D81822F8F7080932502C1
:10E89000822F807F40E1849FC0011124830F911D4E
:10E8A000909327028093260220FF04C090932402B5
:10E8B000809323028E819F81909329028093280266
:10E8C00081E021C0883019F580912E0281110EC09F
:10E8D0008A819B81092E000CAA0BBB0B80932A0214
:10E8E00090932B02A0932C02B0932D02109227023A
:10E8F00010922602109225028E819F819093290208
:10E900008093280284E080932F028FEF40C08930EB
:10E9100081F481E080932E028A819B81AC81BD814C
:10E9200080932A0290932B02A0932C02B0932D0285
:10E930002DC08A30F1F480E791E09F938F9385E7B3
:10E9400091E09F938F930E94E8F68DED91E09F9365
:10E950008F930E94E8F68AE090E00E94FCF6109205
:10E9600030020F900F900F900F900F900F9081E05A
:10E970000EC08F3759F481E080933002109231023B
:10E98000109232021092330284E001C080E020E352
:10E9900032E03093470220934602DF91CF910895F1
:10E9A000AF92BF92CF92DF92EF92FF920F931F939D
:10E9B000CF93DF93D0912F022EEF2D0F223008F04E
:10E9C0003CC0C62F8C015C01A60EB11C0A151B05AC
:10E9D00079F1C0902A02D0902B02E0902C02F090A6
:10E9E0002D02D23069F4C114D10481E0E806F104AB
:10E9F00020F0EBBEF601879109C0F601849106C0B4
:10EA000080912A0290912B020E94BCF9F801808328
:10EA1000FFEFCF1ADF0AEF0AFF0AC0922A02D09254
:10EA20002B02E0922C02F0922D020F5F1F4FCECFEF
:10EA3000C83028F410922F0202C08FEF01C08C2F33
:10EA4000DF91CF911F910F91FF90EF90DF90CF90CA
:10EA5000BF90AF9008956F927F928F929F92AF92E6
:10EA6000BF92CF92DF92EF92FF920F931F93CF93BB
:10EA7000DF93EC0190912F029130B9F4662E21972B
:10EA800000E010E099249394A3E07A2EB5E08B2E59
:10EA900080E7E82E81E0F82E95E7C92E91E0D92E87
:10EAA0002BEEA22E21E0B22E7AC0943039F39630AC
:10EAB00009F0F8C080912A0290912B02A0912C02BB
:10EAC000B0912D02860F911DA11DB11D80932A02C8
:10EAD00090932B02A0932C02B0932D0280912802D8
:10EAE00090912902861B9109909329028093280214
:10EAF000892B09F0D9C010922F0281E0D6C08091F5
:10EB00002F02813009F09EC0209126023091270209
:10EB10002115310509F046C0FF92EF92DF92CF92A6
:10EB20000E94E8F680912D028F9380912C028F93A2
:10EB300080912B028F9380912A028F93BF92AF9284
:10EB40000E94E8F68AE090E00E94FCF68DB79EB73E
:10EB50000A960FB6F8949EBF0FBE8DBF8091280213
:10EB60009091290201979093290280932802892B82
:10EB700009F470C080912A0290912B02A0912C027E
:10EB8000B0912D020196A11DB11D80932A02909390
:10EB90002B02A0932C02B0932D020F5F2196061139
:10EBA000AECF7EC040912A0250912B0260912C0280
:10EBB00070912D0240FF0BC007B600FCFDCFF99904
:10EBC000FECF898190E0982F8827E8810AC007B698
:10EBD00000FCFDCFF999FECF8A8190E0982F88271D
:10EBE000E9818E0F911D0C01FA0160935B009092F8
:10EBF0005700E895112480912302909124020197F7
:10EC00009093240280932302892B09F0A7CF07B6A3
:10EC100000FCFDCFF999FECFFA0160935B00709282
:10EC20005700E89507B600FCFDCFF999FECFFA0131
:10EC300060935B0080925700E89530932402209304
:10EC400023028CCF698180912A0290912B020E942D
:10EC5000C4F984CF10922F028091250281FF1EC03B
:10EC60002091230230912402809126029091270264
:10EC70002817390799F007B600FCFDCFF999FECFA8
:10EC800080912A0290912B02A0912C02B0912D022A
:10EC9000FC01A0935B0080925700E89511E06ACFD9
:10ECA000812F03C08FEF01C080E0DF91CF911F91D2
:10ECB0000F91FF90EF90DF90CF90BF90AF909F901B
:10ECC0008F907F906F900895239A81E085BF15BE45
:10ECD0000C9400000895CF93DF93C4B714BEC1FF16
:10ECE0000E9464F681E085BF82E085BF80E791E005
:10ECF0009F938F9385E791E09F938F930E94E8F60F
:10ED00008C2F0C2E000C990B9F93CF9380E092E0F8
:10ED10009F938F930E94E8F68AE090E00E94FCF6B1
:10ED2000239A8DB79EB708960FB6F8949EBF0FBE74
:10ED30008DBF80E090E00196813E21EB920711F0BB
:10ED40000000F9CF239883E085BD0E945FF180E742
:10ED500091E09F938F9385E791E09F938F930E941B
:10ED6000E8F68CE092E09F938F930E94E8F68AE0A9
:10ED700090E00E94FCF67894279A0F900F900F90E5
:10ED80000F900F900F90C0E0D0E080912102909101
:10ED90002202892B69F40E9467F02196C0368AEE20
:10EDA000D80799F72F9B02C02F98EDCF2F9AEBCF62
:10EDB000C0E0D0E00E9467F02196CF3F9FEFD907D7
:10EDC000C9F70E9464F680E090E0DF91CF9108954A
:10EDD000CF93DF93CDB7DEB7AE014B5F5F4FFA0144
:10EDE00061917191AF0180916402909165020E94DE
:10EDF00002F7DF91CF9108956091640270916502EE
:10EE00000C9422F92F923F924F925F926F927F92D1
:10EE10008F929F92AF92BF92CF92DF92EF92FF922A
:10EE20000F931F93CF93DF93CDB7DEB72B970FB61A
:10EE3000F894DEBF0FBECDBF6C017B018A01FC01DF
:10EE400017821682838181FFCCC1CE0101963C01DD
:10EE5000F6019381F70193FD859193FF81917F01E5
:10EE6000882309F4BAC1853239F493FD859193FF63
:10EE700081917F01853229F4B60190E00E9422F948
:10EE8000E7CF912C212C312CFFE1F315D8F08B32F8
:10EE900079F038F4803279F08332A1F4232D2061A7
:10EEA0001DC08D3261F0803369F4232D216016C0BE
:10EEB000832D8260382EE32DE4603E2E2AC0F32D90
:10EEC000F8601DC037FC2DC020ED280F2A3040F01F
:10EED0008E32B9F436FC81C1232D2064322E19C044
:10EEE00036FE06C08AE0989E200D1124922E11C095
:10EEF000EAE02E9E200D1124222EF32DF0623F2EEB
:10EF000008C08C3621F4832D8068382E02C08836E4
:10EF100041F4F70193FD859193FF81917F01811168
:10EF2000B3CF982F9F7D9554933028F40C5F1F4FDB
:10EF30009FE399830DC0833631F0833771F08335B9
:10EF400009F059C021C0F801808189830E5F1F4FED
:10EF500088248394912C530113C02801F2E04F0EB2
:10EF6000511CF801A080B18036FE03C0692D70E00D
:10EF700002C06FEF7FEFC5010E9417F94C018201BB
:10EF8000F32DFF773F2E16C0280122E0420E511CC0
:10EF9000F801A080B18036FE03C0692D70E002C088
:10EFA0006FEF7FEFC5010E940CF94C01F32DF06863
:10EFB0003F2E820133FC1BC0822D90E088169906FB
:10EFC000B0F4B60180E290E00E9422F92A94F4CFD6
:10EFD000F50137FC859137FE81915F01B60190E024
:10EFE0000E9422F921102A9421E0821A91088114AA
:10EFF000910471F7E8C0843611F0893641F5F801C3
:10F0000037FE07C060817181828193810C5F1F4F41
:10F0100008C060817181072E000C880B990B0E5F70
:10F020001F4FF32DFF763F2E97FF09C090958095D7
:10F03000709561957F4F8F4F9F4FF0683F2E2AE06C
:10F0400030E0A3010E945EF9882E861845C08537FE
:10F0500031F4232D2F7EB22E2AE030E025C0932DEF
:10F06000997FB92E8F36C1F018F4883579F0B5C084
:10F07000803719F0883721F0B0C0E92FE061BE2E4B
:10F08000B4FE0DC0FB2DF460BF2E09C034FE0AC0D3
:10F09000292F2660B22E06C028E030E005C020E10E
:10F0A00030E002C020E132E0F801B7FE07C0608125
:10F0B0007181828193810C5F1F4F06C060817181D5
:10F0C00080E090E00E5F1F4FA3010E945EF9882E42
:10F0D0008618FB2DFF773F2E36FE0DC0232D2E7F89
:10F0E000A22E891458F434FE0BC032FC09C0832DC3
:10F0F0008E7EA82E05C0B82CA32C03C0B82C01C04E
:10F10000B92CA4FE0FC0FE01E80DF11D80818033F3
:10F1100021F49A2D997EA92E09C0A2FE06C0B394AF
:10F12000B39404C08A2D867809F0B394A3FC11C06F
:10F13000A0FE06C0B21488F4280C922C9B180EC0B6
:10F14000B21460F4B60180E290E00E9422F9B39418
:10F15000F7CFB21418F42B1802C0982C212CA4FE5F
:10F1600010C0B60180E390E00E9422F9A2FE17C011
:10F17000A1FC03C088E790E002C088E590E0B601FA
:10F180000CC08A2D867859F0A1FE02C08BE201C026
:10F1900080E2A7FC8DE2B60190E00E9422F989147A
:10F1A00038F4B60180E390E00E9422F99A94F7CFF8
:10F1B0008A94F301E80DF11D8081B60190E00E9470
:10F1C00022F98110F5CF222009F442CEB60180E267
:10F1D00090E00E9422F92A94F6CFF6018681978169
:10F1E00002C08FEF9FEF2B960FB6F894DEBF0FBED5
:10F1F000CDBFDF91CF911F910F91FF90EF90DF90E6
:10F20000CF90BF90AF909F908F907F906F905F90C6
:10F210004F903F902F900895FC01059061507040F1
:10F220000110D8F7809590958E0F9F1F0895FC01CF
:10F230006150704001900110D8F7809590958E0F25
:10F240009F1F08950F931F93CF93DF93FB0123819B
:10F2500021FD03C08FEF9FEF2CC022FF16C0468117
:10F260005781248135814217530744F4A081B1812D
:10F270009D012F5F3F4F318320838C9326813781FF
:10F280002F5F3F4F3783268314C08B01EC01FB01B6
:10F290000084F185E02D0995892BE1F6D8011696B9
:10F2A0008D919C911797019617969C938E93169724
:10F2B000CE01DF91CF911F910F910895FA01AA27F6
:10F2C000283051F1203181F1E8946F936E7F6E5FA9
:10F2D0007F4F8F4F9F4FAF4FB1E03ED0B4E03CD057
:10F2E000670F781F891F9A1FA11D680F791F8A1F3A
:10F2F000911DA11D6A0F711D811D911DA11D20D0A1
:10F3000009F468943F912AE0269F11243019305D5A
:10F310003193DEF6CF010895462F4770405D41934B
:10F32000B3E00FD0C9F7F6CF462F4F70405D4A3398
:10F3300018F0495D31FD4052419302D0A9F7EACF60
:10F34000B4E0A6959795879577956795BA95C9F78F
:10F3500000976105710508959B01AC010A2E069482
:10F360005795479537952795BA95C9F7620F731F3B
:10F37000841F951FA01D0895F999FECF92BD81BDF0
:10F38000F89A992780B50895262FF999FECF1FBACC
:10F3900092BD81BD20BD0FB6F894FA9AF99A0FBEBE
:08F3A00001960895F894FFCFD7
:10F3A800FF5A00000001000000000000C9F2000040
:10F3B8000000000200000000B7F20000000009028F
:10F3C800120001010080190904000000000000007B
:10F3D80012011001FF000008C016DC05040101023B
:10F3E80000010E03550053004200610073007000D5
:10F3F8001C037700770077002E0066006900730011
:10F40800630068006C002E006400650004030904B2
:10F4180062746C6400252D313073203A20006173CA
:10F428006B696E6720666F7220756E6B6E6F776E94
:10F438002064657363726970746F720064697363C2
:10F448006F6E6E656374696E67007472616E736D5A
:10F45800697420726571756573743A202530327845
:10F468002025303278202530327820253032782017
:10F4780000656E61626C652070726F6700736574F9
:10F488002073706920636C6F636B007772697465B1
:10F498002025303578206E6F7420706167656400B0
:10F4A8006D637573723A202530327800626F6F741D
:10F4B8006C6F6164657220696E69747465640000BC
:040000031000E00009
:00000001FF
