:100000000C946F000C948E000C948E000C94E20102
:100010000C948E000C948E000C948E000C948E0028
:100020000C948E000C948E000C948E000C948E0018
:100030000C948E000C948E000C948E000C948E0008
:100040000C948E000C948E000C948E000C948E00F8
:100050000C948E000C948E000C948E000C948E00E8
:100060000C948E000C948E000C948E000C948E00D8
:100070000C948E000C948E000C948E000C948E00C8
:100080000C948E000C948E000C948E0009021200C9
:1000900001010080190904000000000000001201A5
:1000A0001001FF000008C016DC0504010102000178
:1000B0000E035500530042006100730070001C03E2
:1000C0007700770077002E006600690073006300F8
:1000D00068006C002E00640065000403090411240C
:1000E0001FBECFEFD0E4DEBFCDBF12E0A0E0B1E095
:1000F000ECE2F4E100E00BBF02C007900D92A432E5
:10010000B107D9F722E0A4E2B2E001C01D92A936FE
:10011000B207E1F70E941C070C94140A0C9400002B
:10012000CF93DF9360914902635067FD14C0209123
:1001300046028CE090E0821B9109EC01C35BDD4F2D
:10014000809145028D3209F452C08091240287FDCE
:1001500093C0109249028091010184FF3BC0C0917D
:100160000001CF3FB9F1C93008F469C088EF8C0FA6
:10017000809300019091390288E8892780933902A1
:10018000C8E08091240287FDA1C0209147023091F0
:10019000480286FF68C0AAE3B2E0F9018C2F94916F
:1001A0009D9331968150D9F78FEF8C0F90E0019697
:1001B000280F391F30934802209347026C2F8AE39F
:1001C00092E00E94DE0184E08C0F8C3009F047C081
:1001D0008093010194E183B18C7031F49150D9F78F
:1001E00010924A0210924402DF91CF910895683034
:1001F00009F0AFCF83EC809339028AE58093010147
:10020000109224028881807609F041C08A81109280
:1002100042029981911147C01092430222E432E0D8
:1002200082E030934802209347029F81911104C0DD
:100230009E81981708F4892F809300018ACF10922D
:1002400000019091390288E8892780933902C11111
:1002500098CF60E08AE392E00E94DE0184E09FEFA5
:1002600090930001B5CFD901EAE3F2E08C2F9D9184
:1002700091938150E1F798CFCE010E9486068F3F7F
:1002800009F1882309F465CF1092000162CFCE01F5
:100290000E944E038F3F49F6988197FD2DC090E84C
:1002A00090932402C9CF953009F1963039F19830F6
:1002B00089F1993099F181E09A3009F080E022E4E7
:1002C00032E0AFCF8EE18093010143CF6C2F8AE300
:1002D00092E00E944306C82F893008F46FCF8FEF59
:1002E000809300018EE18093010174CF80934A02D4
:1002F00022E432E080E095CF8E81D1CF9B81913096
:10030000D9F0923089F09330F9F080E090E4909346
:1003100024028BCF2CE432E081E083CF80934C0227
:1003200022E432E080E07DCF8CE890E090934802B8
:100330008093470282E1EACF8EE990E090934802F1
:100340008093470282E1E2CF811108C08AED90E0FC
:10035000909348028093470284E0D8CF813051F0D7
:10036000823099F680EB90E09093480280934702A8
:100370008EE0CCCF8EEB90E09093480280934702C2
:100380008CE1C4CFE9E6F0E0808180638083EA9A63
:100390000895A82FB92F80E090E041E050EA6095E1
:1003A00030E009C02D9182279795879510F084271A
:1003B0009527305EC8F36F5FA8F30895EADF8D9349
:1003C0009D930895CF93CFB7CF93C3951B9BE9F728
:1003D0001B9B09C01B9B07C01B9B05C01B9B03C02D
:1003E0001B9B01C0A1C0DF93C0914602DD27C35B08
:1003F000DD4F1B9B02C0DF91EBCF2F930F931F9319
:1004000003B12FEF03FB20F94F933F9313B14FEF4D
:10041000012703FB21F93BE031C04E7F012F13B1CF
:10042000216028C0102F4D7F2260000003B129C039
:100430004B7F2460012F000013B12BC013B1477F05
:1004400028602AC04F7E03B120612CC04F7D13B1BC
:1004500020622FC04F7B03B1206432C0422703B11A
:1004600049934FEF0000102713FB20F913B11C70C4
:10047000C9F1297F91F2012703FB21F903B1237F01
:1004800089F2315058F1102713FB22F913B1277E5E
:1004900079F2012703FB23F92F7C81F203B11027A6
:1004A00013FB24F92F7971F200C013B1012703FB6C
:1004B00025F92F7359F200C003B1102713FB26F959
:1004C000223040F200C013B1012703FB27F924308A
:1004D00028F64F77206813B10000F9CF14E01CBB59
:1004E000002717C03B503195C31BD04014E01CBB04
:1004F0000881033CE9F00B34D9F0209144021981C2
:10050000110F1213EDCF093641F10D3211F0013EFA
:1005100039F700934B023F914F911F910F912F910B
:10052000DF91CCB3C2FD51CFCF91CFBFCF91189502
:1005300020914B02222379F310914902112311F5E6
:10054000343012F130934902209345021091460253
:100550003BE0311B3093460217C000914902013045
:100560008CF40AE53091010134FD10C000930101C3
:10057000C9E3D2E00FC02795A8F45150A9F4220F87
:100580000000F9CF4AE503C042ED01C0432FC4E1AA
:10059000D0E032E014B11C602B9A14B905B120E40C
:1005A0001CE05F93012756E005B9279520F45150D0
:1005B00021F4220FF9CF012756E000003B5A05B97C
:1005C000D0F2279528F4515029F4220F0000F9CFDA
:1005D000012756E0279505B920F4515021F4220F48
:1005E000F9CF012756E02991332305B921F6037F7E
:1005F00010914A02110FC651D04005B911F0109365
:10060000440214E01CBB086014B1137F402F437FE9
:100610005F9100C000C005B914B945B97CCF8823EB
:1006200049F030E026B596B5921B9C33E0F33F5F6E
:100630008313F8CF0895CF93C82F8A3059F0809153
:10064000C00085FFFCCFC093C6008C2FCC0F990B48
:10065000CF9108958DE00E941B03F1CF8091C000DF
:1006600087FFFCCF8091C60090E008951092C500EE
:100670008DE48093C40088E18093C10086E080937C
:10068000C200E3E6F2E080E191E093838283958308
:10069000848382E091E0918380830895CF93DF93F8
:1006A000EC018981813009F41EC1823009F43AC11C
:1006B000833061F1843009F46BC0873009F4DCC009
:1006C000853009F4A3C1863009F449C1883009F4A2
:1006D00096C0893009F41EC28A3009F446C28B30B4
:1006E00009F450C28C3009F470C28D3009F493C201
:1006F0008E3009F4ACC28F3009F4A6C1803109F400
:10070000D6C18F3709F477C180E039C08EE191E01E
:100710009F938F9383E291E09F938F930E94400772
:100720008D811F928F938C811F928F938B811F924B
:100730008F938A811F928F938AE391E09F938F9387
:100740000E9440078AE090E00E9454071092310214
:100750001092320210923302EC81F0E0EE0FFF1F94
:1007600081E280935700E491E09334028DB79EB705
:100770000E960FB6F8949EBF0FBE8DBF84E021E3A6
:1007800032E03093480220934702DF91CF910895E1
:100790008EE191E09F938F9383E291E09F938F93FB
:1007A0000E94400782E691E09F938F930E9440074A
:1007B0008AE090E00E9454070F900F900F900F90E6
:1007C0000F900F9080912F0281110EC08A819B8122
:1007D000092E000CAA0BBB0B80932B0290932C02CA
:1007E000A0932D02B0932E028E819F8190932A02B6
:1007F0008093290282E0809330028FEFC0CF8EE198
:1008000091E09F938F9383E291E09F938F930E9457
:10081000400781E991E09F938F930E9440078AE00F
:1008200090E00E9454070F900F900F900F900F9040
:100830000F9080912F0281110EC08A819B81092E19
:10084000000CAA0BBB0B80932B0290932C02A0935D
:100850002D02B0932E0210922802109227021092BD
:1008600026028E819F8190932A028093290284E040
:10087000809330028FEF83CF8EE191E09F938F932F
:1008800083E291E09F938F930E9440078DE691E071
:100890009F938F930E9440078AE090E00E94540744
:1008A0000F900F900F900F900F900F9080912F024C
:1008B00081110EC08A819B81092E000CAA0BBB0BF3
:1008C00080932B0290932C02A0932D02B0932E02C2
:1008D0008E819F8190932A028093290283E08093E6
:1008E00030028FEF4CCF8EE191E09F938F9383E2A4
:1008F00091E09F938F930E9440078FE291E09F9336
:100900008F930E9440078AE090E00E945407109263
:100910002F0241980F900F900F900F900F900F9013
:1009200080E02DCF8EE191E09F938F9383E291E061
:100930009F938F930E9440078CE291E09F938F9347
:100940000E9440078AE090E00E945407419A0F906D
:100950000F900F900F900F900F9080E010CF8EE1CE
:1009600091E09F938F9383E291E09F938F930E94F6
:10097000400785E891E09F938F930E9440078AE0AB
:1009800090E00E9454070F900F900F900F900F90DF
:100990000F9080912F0281110EC08A819B81092EB8
:1009A000000CAA0BBB0B80932B0290932C02A093FC
:1009B0002D02B0932E023C812D81822F8F70809367
:1009C0002602822F807F40E1849FC0011124830F83
:1009D000911D909328028093270220FD8093250289
:1009E0008E819F8190932A028093290281E08093D7
:1009F00030028FEFC4CE81E0809331021092320238
:100A0000109233021092340284E0B9CE8EE191E06C
:100A10009F938F9383E291E09F938F930E9440076F
:100A200089E791E09F938F930E9440078AE090E0CE
:100A30000E945407109231020F900F900F900F9068
:100A40000F900F9081E09BCE8EE191E09F938F936A
:100A500083E291E09F938F930E94400783EF91E0A0
:100A60009F938F930E9440078AE090E00E94540772
:100A70008A819B81092E000CAA0BBB0B80932B0251
:100A800090932C02A0932D02B0932E028E819F8111
:100A900090932A028093290285E0809330020F9080
:100AA0000F900F900F900F900F908FEF68CE8EE108
:100AB00091E09F938F9383E291E09F938F930E94A5
:100AC000400781E092E09F938F930E9440078AE065
:100AD00090E00E9454078A819B81092E000CAA0B8A
:100AE000BB0B80932B0290932C02A0932D02B0930A
:100AF0002E028E819F8190932A028093290286E0A4
:100B0000809330020F900F900F900F900F900F90E6
:100B10008FEF35CE8EE191E09F938F9383E291E04A
:100B20009F938F930E9440078EE991E09F938F934C
:100B30000E9440078AE090E00E94540781E0809381
:100B40002F028A819B81AC81BD8180932B0290937F
:100B50002C02A0932D02B0932E020F900F900F90B5
:100B60000F900F900F9080E00ACE8EE191E09F935E
:100B70008F9383E291E09F938F930E9440078FEAC7
:100B800091E050CF8EE191E09F938F9383E291E0CB
:100B90009F938F930E9440078DEB91E09F938F93DB
:100BA0000E9440078AE090E00E94540783E00E9480
:100BB0000F03419880E10E940F030F900F900F9058
:100BC0000F900F900F9080E0DACD8EE191E09F932F
:100BD0008F9383E291E09F938F930E94400789EC6B
:100BE00091E09F938F930E9440078AE090E00E94DB
:100BF00054078AE00E940F0385E00E940F0385E0FE
:100C00000E940F03419A0F900F900F900F900F903A
:100C10000F9080E0B4CD8EE191E09F938F9383E2BB
:100C200091E09F938F930E94400788ED91E09F93FE
:100C30008F930E9440078AE090E00E9454070F9033
:100C40000F900F900F900F900F9081E098CD8EE154
:100C500091E09F938F9383E291E09F938F930E9403
:100C6000400785EE91E09F938F930E9440078AE0B2
:100C700090E00E9454070F900F900F900F900F90EC
:100C80000F9080E07CCD809130029EEF980F9230E3
:100C900020F0853029F18FEF08956623D9F08091F7
:100CA0002B0290912C02A0912D02B0912E02019660
:100CB000A11DB11D2FEF260F820F911DA11DB11D8A
:100CC00080932B0290932C02A0932D02B0932E02BE
:100CD000683020F410923002862F0895862F0895F0
:100CE00080912B0290912C02A0912D02B0912E02A6
:100CF000860F911DA11DB11D80932B0290932C0294
:100D0000A0932D02B0932E02862F0895CF92DF92EA
:100D1000EF92FF920F931F9390913002913069F000
:100D2000943059F0963009F45BC08FEF1F910F910A
:100D3000FF90EF90DF90CF900895662309F474C080
:100D40002091290230912A02C0902B02D0902C02CF
:100D5000E0902D02F0902E02E0912702F0912802FF
:100D600070912502AE2F615021503109A901461B17
:100D7000510980E00AC02115310511F490E081E0AD
:100D80002417350751F0215031099130A1F73097E0
:100D900091F3715081F77A2FEECF70932502309343
:100DA0002A022093290290933002970186010F5F57
:100DB0001F4F2F4F3F4F68017901C60ED11CE11C18
:100DC000F11CC0922B02D0922C02E0922D02F092E4
:100DD0002E021F910F91FF90EF90DF90CF9008951A
:100DE00080912B0290912C02A0912D02B0912E02A5
:100DF000860F911DA11DB11D80932B0290932C0293
:100E0000A0932D02B0932E028091290290912A0284
:100E1000861B910990932A0280932902892B21F441
:100E20001092300281E082CF80E01F910F91FF90FD
:100E3000EF90DF90CF9008950E94360383E085BD48
:100E40000E94C2018EE191E09F938F9383E291E033
:100E50009F938F930E94400780E192E09F938F932E
:100E60000E9440078AE090E00E94540778940F9017
:100E70000F900F900F900F900F900E949000FDCF59
:100E8000CF93DF93CDB7DEB7AE014B5F5F4FFA0173
:100E900061917191AF0180916502909166020E940B
:100EA0005A07DF91CF9108956091650270916602B3
:100EB0000C947A092F923F924F925F926F927F9299
:100EC0008F929F92AF92BF92CF92DF92EF92FF925A
:100ED0000F931F93CF93DF93CDB7DEB72B970FB64A
:100EE000F894DEBF0FBECDBF6C017B018A01FC010F
:100EF00017821682838181FFCCC1CE0101963C010D
:100F0000F6019381F70193FD859193FF81917F0114
:100F1000882309F4BAC1853239F493FD859193FF92
:100F200081917F01853229F4B60190E00E947A090F
:100F3000E7CF912C212C312CFFE1F315D8F08B3227
:100F400079F038F4803279F08332A1F4232D2061D6
:100F50001DC08D3261F0803369F4232D216016C0ED
:100F6000832D8260382EE32DE4603E2E2AC0F32DBF
:100F7000F8601DC037FC2DC020ED280F2A3040F04E
:100F80008E32B9F436FC81C1232D2064322E19C073
:100F900036FE06C08AE0989E200D1124922E11C0C4
:100FA000EAE02E9E200D1124222EF32DF0623F2E1A
:100FB00008C08C3621F4832D8068382E02C0883614
:100FC00041F4F70193FD859193FF81917F01811198
:100FD000B3CF982F9F7D9554933028F40C5F1F4F0B
:100FE0009FE399830DC0833631F0833771F08335E9
:100FF00009F059C021C0F801808189830E5F1F4F1D
:1010000088248394912C530113C02801F2E04F0EE1
:10101000511CF801A080B18036FE03C0692D70E03C
:1010200002C06FEF7FEFC5010E946F094C01820182
:10103000F32DFF773F2E16C0280122E0420E511CEF
:10104000F801A080B18036FE03C0692D70E002C0B7
:101050006FEF7FEFC5010E9464094C01F32DF0682A
:101060003F2E820133FC1BC0822D90E0881699062A
:10107000B0F4B60180E290E00E947A092A94F4CF9D
:10108000F50137FC859137FE81915F01B60190E053
:101090000E947A0921102A9421E0821A9108811471
:1010A000910471F7E8C0843611F0893641F5F801F2
:1010B00037FE07C060817181828193810C5F1F4F71
:1010C00008C060817181072E000C880B990B0E5FA0
:1010D0001F4FF32DFF763F2E97FF09C09095809507
:1010E000709561957F4F8F4F9F4FF0683F2E2AE09C
:1010F00030E0A3010E94B609882E861845C08537C6
:1011000031F4232D2F7EB22E2AE030E025C0932D1E
:10111000997FB92E8F36C1F018F4883579F0B5C0B3
:10112000803719F0883721F0B0C0E92FE061BE2E7A
:10113000B4FE0DC0FB2DF460BF2E09C034FE0AC002
:10114000292F2660B22E06C028E030E005C020E13D
:1011500030E002C020E132E0F801B7FE07C0608154
:101160007181828193810C5F1F4F06C06081718104
:1011700080E090E00E5F1F4FA3010E94B609882E09
:101180008618FB2DFF773F2E36FE0DC0232D2E7FB8
:10119000A22E891458F434FE0BC032FC09C0832DF2
:1011A0008E7EA82E05C0B82CA32C03C0B82C01C07D
:1011B000B92CA4FE0FC0FE01E80DF11D8081803323
:1011C00021F49A2D997EA92E09C0A2FE06C0B394DF
:1011D000B39404C08A2D867809F0B394A3FC11C09F
:1011E000A0FE06C0B21488F4280C922C9B180EC0E6
:1011F000B21460F4B60180E290E00E947A09B394E0
:10120000F7CFB21418F42B1802C0982C212CA4FE8E
:1012100010C0B60180E390E00E947A09A2FE17C0D8
:10122000A1FC03C088E790E002C088E590E0B60129
:101230000CC08A2D867859F0A1FE02C08BE201C055
:1012400080E2A7FC8DE2B60190E00E947A09891441
:1012500038F4B60180E390E00E947A099A94F7CFBF
:101260008A94F301E80DF11D8081B60190E00E949F
:101270007A098110F5CF222009F442CEB60180E22E
:1012800090E00E947A092A94F6CFF6018681978130
:1012900002C08FEF9FEF2B960FB6F894DEBF0FBE04
:1012A000CDBFDF91CF911F910F91FF90EF90DF9015
:1012B000CF90BF90AF909F908F907F906F905F90F6
:1012C0004F903F902F900895FC0105906150704021
:1012D0000110D8F7809590958E0F9F1F0895FC01FF
:1012E0006150704001900110D8F7809590958E0F55
:1012F0009F1F08950F931F93CF93DF93FB012381CB
:1013000021FD03C08FEF9FEF2CC022FF16C0468146
:101310005781248135814217530744F4A081B1815C
:101320009D012F5F3F4F318320838C93268137812E
:101330002F5F3F4F3783268314C08B01EC01FB01E5
:101340000084F185E02D0995892BE1F6D8011696E8
:101350008D919C911797019617969C938E93169753
:10136000CE01DF91CF911F910F910895FA01AA2725
:10137000283051F1203181F1E8946F936E7F6E5FD8
:101380007F4F8F4F9F4FAF4FB1E03ED0B4E03CD086
:10139000670F781F891F9A1FA11D680F791F8A1F69
:1013A000911DA11D6A0F711D811D911DA11D20D0D0
:1013B00009F468943F912AE0269F11243019305D8A
:1013C0003193DEF6CF010895462F4770405D41937B
:1013D000B3E00FD0C9F7F6CF462F4F70405D4A33C8
:1013E00018F0495D31FD4052419302D0A9F7EACF90
:1013F000B4E0A6959795879577956795BA95C9F7BF
:1014000000976105710508959B01AC010A2E0694B1
:101410005795479537952795BA95C9F7620F731F6A
:0C142000841F951FA01D0895F894FFCFB5
:10142C00FF5A000000010000000000002E03000025
:10143C0000000002000000001B03000000006274AA
:10144C006C6400252D313073203A2000646973637D
:10145C006F6E6E656374696E67007472616E736D26
:10146C00697420726571756573743A202530327811
:10147C0020253032782025303278202530327820E3
:10148C000A007265616420666C6173680072656144
:10149C006420454550524F4D00656E61626C65206D
:1014AC0070726F6700777269746520666C6173681F
:1014BC0000777269746520656570726F6D00736575
:1014CC0074204C6F6E672061646472657373007373
:1014DC0065742073706920636C6F636B00545049A2
:1014EC0020636F6E6E656374005450492064697399
:1014FC00636F6E6E6563740054504920726177207F
:10150C00726561640054504920726177207772696A
:10151C007465005450492072656164626C6F636B32
:10152C0000545049207772697465626C6F636B006C
:10153C00626F6F746C6F6164657220696E6974742C
:04154C0065640000D2
:00000001FF
