:100000000C944C000C946B000C946B000C946B00E3
:100010000C946B000C94DA100C946B000C946B0035
:100020000C94CB110C946B000C946B000C946B0033
:100030000C946B000C9480110C946B000C946B006E
:100040000C946B000C946B000C946B000C946B0084
:100050000C946B000C946B000C946B000C946B0074
:100060000C946B000C946B000C946B000C946B0064
:100070000C946B000C946B000C946B000C946B0054
:100080000C946B000C946B000C946B006364696EB1
:100090006F70737578585B0011241FBECFEFD0E4EA
:1000A000DEBFCDBF20E1A2E6B3E001C01D92A536C0
:1000B000B207E1F713E0A0E0B1E0E0E2F4E300E032
:1000C0000BBF02C007900D92A236B107D9F70E946C
:1000D00038120C940E1A0C9400008EBD0DB407FE5D
:1000E000FDCF8EB508952C9A8091F70F811101C034
:1000F000789408952C98F8940895CF93DF93D82F8F
:10010000C62F0E947A008D2F80680E946D008C2F70
:100110000E946D00DF91CF910C947300CF93C82F94
:100120000E947A008C2F0E946D0080E00E946D007A
:10013000C82F0E9473008C2FCF910895CF93C82FA2
:100140008A3019F48DE00E949E008091C00085FFE6
:10015000FCCFC093C6008C2FCC0F990BCF91089584
:10016000E091FA0FF091FB0F8081811107C08FEFB2
:100170009FEF9093A40F8093A30F0895E091FA0F3F
:10018000F091FB0F0580F681E02D80819181F1CF08
:10019000009721F48091511090915210DC015796F4
:1001A000ED91FC9180E090E0DC012191253A09F08D
:1001B00008950196A11DB11DF8CFFC01DB010FB61A
:1001C000F8940F9240915310509154102D913C91FE
:1001D00011972F3F320711F1818192816091551063
:1001E0007081761749F04817590730F01D921C921C
:1001F00081E00F900FBE0895481B590B421753071B
:10020000A8F7241B350B2D933C93809155108083C8
:1002100080915310909154109283818380E0E9CFB4
:10022000CF93DF93DC011596ED91FC910680F78169
:10023000E02DA489B5898685978520893189EC01CF
:100240003D832C83C089D1899B838A83CF010C96FF
:1002500011962D913C9112972817390721F4129687
:10026000DC93CE931197158A148A2C9121502C93EC
:100270002091A60F211157C0A285B3858481958155
:1002800026813781EC013D832C83C681D7819B83F6
:100290008A83CF01029611962D913C9112972817CF
:1002A000390721F41296DC93CE93119713861286A8
:1002B0002C9121502C93C68920914D102C1710F4AD
:1002C000C0934D1029E02C9FE0011124C75DDF4E43
:1002D0000980DA81C02DD583C4834C815D81578329
:1002E0004683AC81BD8113969C938E9312979D8318
:1002F0008C83A689A29FD0011124A75DBF4EB3872E
:10030000A2878C918F5F8C93A0915110B091521065
:10031000968956968C91891730F581E08093A50FC8
:10032000DF91CF910895A0910F10B0911010B78771
:10033000A68714962D913C911597318B208B14969E
:10034000CD91DC9115979B838A8315969C938E9310
:1003500014978EE090E1958B848B80910E108F5FC7
:1003600080930E10D1CF80E0DBCFEF92FF920F93FE
:100370001F93CF93DF938091A60F8111C4C0C091CA
:100380005310D09154107E018FEFE81AF80AF092C2
:100390005410E0925310E114F104B9F48091FA0F73
:1003A0009091FB0F2091F80F3091F90F3093FB0FD4
:1003B0002093FA0F9093F90F8093F80F80915510C6
:1003C0008F5F809355100E94B0008091A30F909191
:1003D000A40FE816F90670F049E0E091FA0FF091E9
:1003E000FB0F808181110EC08FEF9FEF9093A40FC0
:1003F0008093A30F80E0DF91CF911F910F91FF9029
:10040000EF900895E091FA0FF091FB0F0580F681CF
:10041000E02D0680F781E02D82819381E816F906B0
:1004200028F3C285D3858481958126813781DC01BB
:1004300015963C932E93149726813781D9011396F4
:100440009C938E931297CF01029669817A816817E7
:10045000790711F43A832983138612862881215063
:100460002883A489B5891097F9F026853785608996
:100470007189E9017D836C8360897189EB013B831C
:100480002A8311960D911C9112979F01245F3F4F73
:100490000217130721F412967C936E931197158A15
:1004A000148A2C9121502C93A68920914D102A1743
:1004B00010F4A0934D104A9FD0011124A75DBF4EA8
:1004C00011960D90BC91A02DB583A48314962D9107
:1004D0003C9115973783268314962D913C9115975F
:1004E000E9019B838A8315969C938E931497A68922
:1004F000A49FD0011124A75DBF4EB387A2878C9122
:100500008F5F8C936ACF80917A0F90917B0F0196C9
:1005100090937B0F80937A0F6DCFEF92FF920F93A2
:100520001F93CF93DF930FB6F8940F928091A60F8D
:1005300081508093A60F8091A60F811128C08091D1
:100540005010882321F1E0901310F0901410F0E087
:10055000E0E039E041E080910E10811122C0EF2BE4
:1005600011F00E94B000C0917A0FD0917B0F2097BC
:1005700061F011E00E94B50181111093A50F219740
:10058000C9F710927B0F10927A0F8091A50F0F90F0
:100590000FBE80E0DF91CF911F910F91FF90EF9000
:1005A0000895D7011696ED91FC91A489B5896685C9
:1005B000778580899189EB019D838C8380899189DE
:1005C000EC017B836A83BF01645F7F4F11960D91BD
:1005D0001C9112970617170721F412969C938E937D
:1005E0001197158A148A8C9181508C93A285B385BA
:1005F0008481958166817781EC017D836C8366813E
:100600007781EB019B838A83CF01029611960D912E
:100610001C9112970817190721F412967C936E9378
:100620001197138612862C9121502C93A689209124
:100630004D102A1710F4A0934D103A9FD0011124A9
:10064000A75DBF4E11960D90BC91A02DB583A483DC
:1006500014966D917C9115977783668314966D91AE
:100660007C911597EB019B838A8315969C938E93BF
:1006700014979689939FD0011124A75DBF4EB3872D
:10068000A2878C918F5F8C93A0915110B0915210E2
:1006900056968C91981708F45ECF4093A50F5BCFC8
:1006A0008091A60F8F5F8093A60F0895EF92FF921F
:1006B0000F931F93CF93DF93EC010FB6F8940F9233
:1006C0001E8D7C0181E1E80EF11C01E01116D4F0D1
:1006D0008FEF8E8F0F900FBE0FB6F8940F921D8D77
:1006E0007E0188E0E80EF11C01E01116B4F08FEFF6
:1006F0008D8F0F900FBEDF91CF911F910F91FF90C3
:10070000EF9008958989882319F3C7010E94100189
:1007100081110093A50F1150D9CF8885882339F313
:10072000C7010E94100181110093A50F1150DDCF68
:10073000CF93DF93FC01A085B185828193812481D1
:100740003581EC013D832C83C481D5819B838A83D1
:1007500011968D919C9112978E179F0721F41296F6
:10076000DC93CE931197118610868C9181508C93D7
:100770008C91DF91CF9108950F931F93CF93DF93C7
:100780008C01FB0180819181D80113968F3F9807DE
:10079000F1F4E801AF81B88512968D919C91139781
:1007A00093838283EC01FD83EC83B583A48313964A
:1007B000FC93EE93129711870087F80180818F5F79
:1007C0008083DF91CF911F910F910895D9011296E7
:1007D0002D913C911397E901488159818417950720
:1007E000A8F7DACFFF920F931F93CF93DF93EC011B
:1007F000F62E009153101091541080915110909149
:10080000521002960E949803CF3FDC07E9F5FF20C3
:10081000D9F1E091FD0FF091FE0FA0915110B09130
:1008200052101596FC93EE931497A0915110B0912D
:1008300052108481958117969C938E931697809180
:10084000511090915210A481B581029613969C93F9
:100850008E93129780915110909152100296958329
:100860008483E0915110F09152108CEF9FE09387B8
:1008700082878091FC0F8F5F8093FC0FDF91CF9177
:100880001F910F91FF900895C00FD11FE09151105B
:10089000F0915210D383C283609151107091521025
:1008A000C017D10768F48091F80F9091F90F6E5F2F
:1008B0007F4FDF91CF911F910F91FF900C94BC035C
:1008C0008091FA0F9091FB0F6E5F7F4F0E94BC03E7
:1008D0008091A30F9091A40FC817D90778F6D093F1
:1008E000A40FC093A30FCACFA8950F920FB6F89488
:1008F0000F921F9211242F923F924F925F926F920C
:100900007F928F929F92AF92BF92CF92DF92EF929F
:10091000FF920F931F932F933F934F935F936F9388
:100920007F938F939F93AF93BF93CF93DF93EF9377
:10093000FF93A0915110B09152100DB60D920EB6CA
:100940000D928091A60F882321F081E08093A50F5E
:1009500060C01092A50FA0915110B0915210E0917B
:100960005110F09152102D913C918789908D8217F2
:100970009307B0F080915110909152102091511036
:100980003091521049969F938F938EE191E09F93FF
:100990008F930E9427140F900F900F900F90FFCF0E
:1009A00020914D1089E001C02150422F50E0849FDA
:1009B000F001859FF00D1124E75DFF4E9081992392
:1009C00099F3A181B28112960D90BC91A02DB283B2
:1009D000A183289FC0011124845D9F4EA817B907E9
:1009E00029F412968D919C919283818389E0849F52
:1009F000F001859FF00D1124E75DFF4E0180F2812B
:100A0000E02D86819781909352108093511020930E
:100A10004D10A0915110B0915210CD91CDBFDD91EC
:100A2000DEBFFF91EF91DF91CF91BF91AF919F9189
:100A30008F917F916F915F914F913F912F911F9176
:100A40000F91FF90EF90DF90CF90BF90AF909F906D
:100A50008F907F906F905F904F903F902F901F905E
:100A60000F900FBE0F900895CF92DF92EF92FF92FA
:100A70000F931F93CF93DF9300D000D01F92CDB779
:100A8000DEB78C018FEF9FEF9D838C8380E0680140
:100A900091E1C90ED11C0FB6F8940F92F801F28CB7
:100AA000FF20A9F1448D4423B9F050E0868197815D
:100AB000840F951F9783868324813581821793073E
:100AC00020F08081918197838683F8016681778108
:100AD00086E590E10E941714FA94F801F28E808561
:100AE000882321F0C80108960E9410010F900FBEC4
:100AF00081E00F900F900F900F900F90DF91CF91AA
:100B00001F910F91FF90EF90DF90CF9008952C816F
:100B10003D81232B21F40F900FBE80E0EACF81119D
:100B200009C0809155108983809153109091541081
:100B30009B838A830F900FBE0E9450030FB6F894D8
:100B40000F92F801858D8F3F09F4158EF801868D7F
:100B50008F3F09F4168E0F900FBEBE016C5F7F4F62
:100B6000CE0101960E94DD00811129C00FB6F894D4
:100B70000F92F801828D0F900FBE81111AC0EC8088
:100B8000FD806091511070915210645F7F4FC601DB
:100B90000E94BC0361E0C7010E94F203C8010E94E9
:100BA00056030E948D02811102C00E94740481E0EC
:100BB00072CFC8010E9456030E948D02F8CFC8016F
:100BC0000E9456030E948D020FB6F8940F92F8010E
:100BD000828D0F900FBE8111EACF8BCF8091C00024
:100BE00087FF04C08091C60090E008950E947404BD
:100BF000F5CF89E0D82E80917C0F811180C00E94B2
:100C000074048091A10F9091A20F892BA1F3809180
:100C1000850FF090A00F81118BC00FB6F8940F9242
:100C200080915310909154100F900FBE2091830F1C
:100C30003091840F821B930B9093820F8093810FCE
:100C40008091810F9091820F00917F0F1091800F02
:100C5000009709F0A5C01093840F0093830F809133
:100C6000A00F282F30E0D29EF001D39EF00D11246A
:100C7000E257F04F908191110FC08823E9F1815024
:100C8000282F30E0D29EF001D39EF00D1124E257C0
:100C9000F04F9081992381F18093A00FD29EC001E3
:100CA000D39E900D1124FC01E257F04FA181B28137
:100CB00012960D90BC91A02DB283A1838F56904FB8
:100CC000A817B90729F412968D919C91928381837C
:100CD000D29EF001D39EF00D1124E257F04F018017
:100CE000F281E02D86819781DC01ED91FC911197D5
:100CF00057966C9109957FCF8093A00F7CCF0FB64C
:100D0000F8940F92E0910A10F0910B108681978170
:100D100002960E9498038091501081508093501049
:100D200080917C0F815080937C0F0F900FBE63CF1A
:100D3000F894C0910600D0910700CE010C960E9455
:100D4000980378948E010E5F1F4FC8010E9498038C
:100D5000EE89FE1610F4E093A00FDE9EF001112440
:100D60009F012257304FF901A181B281BD83AC832D
:100D700014968D919C9115979F838E8314968D91D7
:100D80009C911597FC011383028315961C930E9377
:100D900014973B872A87D9018C918F5F8C9337CF2B
:100DA0000F5F1F4F1093800F00937F0F0197909359
:100DB000820F8093810F0115110581F48091A10F9D
:100DC0009091A20F20917D0F30917E0F3093A20F52
:100DD0002093A10F90937E0F80937D0FE091A10F40
:100DE000F091A20F8081882309F42ACF0580F68133
:100DF000E02DC681D7818A819B810817190708F4E5
:100E00001FCFF8947E01B2E0EB0EF11CC7010E94E7
:100E100098038C899D89892B21F0CE010C960E9424
:100E200098037894EE898091A00F8E1710F4E093C8
:100E3000A00FDE9EF00111249F012257304FF901CF
:100E4000A181B281BD83AC8314968D919C9115973D
:100E50009F838E8314968D919C911597FC01F3824C
:100E6000E2821596FC92EE9214973B872A87D9016D
:100E70008C918F5F8C93B2CFCF93DF93EC010E9464
:100E8000500360E0CE010E94F2030E948D028111A6
:100E900002C00E947404DF91CF910895CF93909186
:100EA0001D01981741F0C82F823091F130F488234A
:100EB000F1F18130A9F1CF9108958330D1F08430E0
:100EC000D1F781E00E948E00837E682F6C6081E004
:100ED0000E947D006DE58AE50E947D006CE78CE54F
:100EE0000E947D0080911D01882339F1C0931D016E
:100EF000E2CF81E00E948E00837E682F606181E0F6
:100F00000E947D0065E58AE50E947D0060E7E7CFED
:100F100081E00E948E00837E682F686081E0E0CFD0
:100F200081E00E948E00837E682F6460F7CF81E0AD
:100F30000E948E00682F637EF1CF87E20E948E00B0
:100F400087FDD4CF85E090E00E943C07CBCF109284
:100F5000F20F1092F10F1092F50F1092F60F1092FF
:100F6000B00F1092AF0F1092B20F1092B10F88E233
:100F70000E948E0082FF08C08DE30E948E00682FC1
:100F800064608DE30E947D0060E485E20E947D0044
:100F900083E00C944E07CF93DF93EC010E94500343
:100FA0008091780F9091790F892B31F480EC93E048
:100FB0009093790F8093780F8091BE039091BF0337
:100FC0009C012C0F3D1F273B4BE0340758F00E943B
:100FD0008D028AE391E09F938F930E9427140F90D4
:100FE0000F90FFCF8217930790F7C091780FD091A1
:100FF000790FC80FD91F3093BF032093BE030E94FF
:101000008D02209731F3CE01DF91CF9108957F9229
:101010008F929F92AF92BF92CF92DF92EF92FF9208
:101020000F931F93CF93DF93982EA92E762E872EA2
:10103000B42EE52EF22E88EC90E00E94CB076C01D6
:10104000892B79F48FEFDF91CF911F910F91FF9052
:10105000EF90DF90CF90BF90AF909F908F907F9058
:1010600008958AE290E00E94CB07EC01892B51F3AE
:101070008AE2DE011D928A95E9F7D88ECF8A48EC84
:1010800050E065EA70E0C6010E9420148F89988DB7
:10109000E72DF82DBE01675E7F4F9F01285F3F4F10
:1010A0004191DB014D93BD01AF0141505109DA017E
:1010B0004C91442319F0E217F30791F718A2FE8A26
:1010C000FBA21B861A861D8A1C8AD987C88724E042
:1010D00030E02F1931093D872C87DB8BCA8BFC014F
:1010E000E953FF4F31E13083319722E2208331977A
:1010F00043E34083319790823197A08231971082E9
:10110000319740E8408331971082319742E0408325
:10111000319743E04083319744E04083319745E085
:101120004083319746E04083319747E040833197D1
:1011300048E04083319749E04083319740E1408364
:1011400031973083319732E13083319733E1308307
:10115000319734E13083319735E13083319736E18F
:101160003083319737E13083319738E130833197DD
:1011700039E13083319730E23083319731E2308387
:1011800031972083319723E220833197B0823197C2
:10119000E082319726E22083319727E2208331973E
:1011A00028E22083319729E22083319720E32083AE
:1011B000319721E320838F559F4F99838883F801CE
:1011C000D183C0830FB6F8940F92809150108F5F37
:1011D000809350108091511090915210892B09F0FA
:1011E0000EC1D0935210C093511080915010813095
:1011F00009F0C2C02CE230E130932B1020932A106A
:101200008FEF9FEF90932D1080932C1030932F1021
:1012100020932E103093311020933010109229100B
:1012200025E330E13093341020933310909336103F
:1012300080933510309338102093371030933A1044
:1012400020933910109232102EE330E130933D108C
:1012500020933C1090933F1080933E1030934110A8
:1012600020934010309343102093421010923B1073
:1012700027E430E1309346102093451090934810B6
:101280008093471030934A102093491030934C10AC
:1012900020934B101092441023E230E1309322103F
:1012A00020932110909324108093231030932610C4
:1012B000209325103093281020932710109220108F
:1012C0002AE130E1309319102093181090931B10ED
:1012D00080931A1030931D1020931C1030931F1010
:1012E00020931E101092171021E130E1309310105E
:1012F00020930F10909312108093111030931410BC
:1013000020931310309316102093151010920E1086
:1013100028E030E1309307102093061090930910D5
:101320008093081030930B1020930A1030930D1007
:1013300020930C10109205102FEF3FE03093FE0F1A
:101340002093FD0F909300108093FF0F30930210B5
:101350002093011030930410209303101092FC0F7F
:1013600080E290E19093FB0F8093FA0F87E190E188
:101370009093F90F8093F80F80914E108F5F8093B8
:101380004E1089A3AE8980914D108A1710F4A09356
:101390004D1089E08A9FD0011124A75DBF4E1196A0
:1013A0000D90BC91A02DBD83AC8314962D913C91E2
:1013B00015973F832E839E012E5F3F4F1496ED912C
:1013C000FC9115973383228315963C932E931497A3
:1013D000EE89E89FF0011124E75DFF4EFB87EA8765
:1013E00080818F5F80830F900FBE80914F10882384
:1013F00021F0809151109091521081E024CE809183
:101400004F108111B9CFE0915110F091521096898F
:101410008E89891708F4B0CFD0935210C093511021
:10142000ABCF0F931F93CF93DF93C82FD5E08D9F42
:1014300080011124C80181960E94CB07FC0100970E
:10144000B1F19C012F5D3F4F31832083D38FC48F37
:101450000FB6F8940F92020F131F15830483128E98
:101460003383228384E0C89FE00111242C0F3D1FA9
:10147000378326838FEF858F868FCF010B969287D8
:1014800081872FEF3FEF3487238796878587908B5F
:10149000878710860996938B828B358B248B978B4D
:1014A000868B918F808F118A0F900FBE10A2CF0173
:1014B000DF91CF911F910F91089508E612E0CFE4DC
:1014C000D1E081E6C82E81E0D82E99EA292E91E05C
:1014D000392EE090BE03F090BF032FEFE21AF20A1C
:1014E0008091BC039091BD030E94C800582E492EE4
:1014F0008091BA039091BB030E94C800782E692E98
:101500008091B8039091B9030E94C800982E892E4B
:101510008091B6039091B7030E94C800B82EA92EFF
:101520008091A70F9091A80F2091A90F3091AA0F39
:101530004091AB0F4091AC0F4091AD0F4091AE0F79
:101540003F932F939F938F931F930F93DF93CF938B
:101550000E9427142BE02F9388EB8F93FF92EF923A
:10156000DF92CF920E9427148AE090E00E943B1401
:101570008091A70F9091A80F2091A90F3091AA0FE9
:101580004091AB0F4091AC0F4091AD0F4091AE0F29
:101590003F932F939F938F931F930F93DF93CF933B
:1015A0000E9427144F925F9283E791E09F938F935D
:1015B0000E9427148AE090E00E943B148091A70FBC
:1015C0009091A80F2091A90F3091AA0F4091AB0FD5
:1015D0004091AC0F4091AD0F4091AE0F3F932F93D0
:1015E0009F938F931F930F93DF93CF930E942714A2
:1015F0008DB79EB782960FB6F8949EBF0FBE8DBF73
:101600006F927F9285E891E09F938F930E942714B9
:101610008AE090E00E943B148091A70F9091A80F60
:101620002091A90F3091AA0F4091AB0F4091AC0FC0
:101630004091AD0F4091AE0F3F932F939F938F93A7
:101640001F930F93DF93CF930E9427148F929F9243
:1016500087E991E09F938F930E9427148AE090E09E
:101660000E943B148091A70F9091A80F2091A90F81
:101670003091AA0F4091AB0F4091AC0F4091AD0F4C
:101680004091AE0F3F932F939F938F931F930F9390
:10169000DF93CF930E942714AF92BF923F922F9275
:1016A0000E9427148AE090E00E943B1488E893E1AE
:1016B0000E943C078DB79EB74C960FB6F8949EBF1C
:1016C0000FBE8DBF06CFCF93DF93CDB7DEB7AE97FA
:1016D0000FB6F894DEBF0FBECDBF8091A70F9091DB
:1016E000A80F2091A90F3091AA0F4091AB0F409104
:1016F000AC0F4091AD0F4091AE0F3F932F939F934E
:101700008F938CEC91E09F938F938FE491E09F9364
:101710008F930E94271480ED91E09F938F930E94F6
:1017200027148AE090E00E943B1491E0998384E0C2
:101730008A8332E03B831C8223E02D833E838F83A8
:1017400080E4888735E039872A8726E02B8723E3E2
:101750002C8737E03D872CE62E8728E02F87888B63
:1017600029E0298B1A8A29E12B8B22E42C8B45E274
:101770004D8B8E8B86E28F8B388F88E2898F80E14C
:101780008A8F89E28B8F8CED8C8F8EE28D8F88E82B
:101790008E8F8FE28F8F8DE288A380E389A334E65A
:1017A0003AA337E33BA330E93CA338E33DA32EA3A0
:1017B0002CE32FA32FE828A72DE329A722E12AA7AE
:1017C0002FE62BA78CA78FEF8DA71EA684B18F7055
:1017D00084B984B1806B84B980E58CBD9DBD249AA9
:1017E0002C9A209828980FB6F894DEBF0FBECDBF74
:1017F0008FE20E948E008A3A09F05FC18FE20E9458
:101800008E00853509F062C110E0E12FF0E0EE0FA7
:10181000FF1F81E090E08C0F9D1FE80FF91F808172
:101820008F3F09F05CC181E00E944E078DE30E946A
:101830008E00682F6E7F8DE30E947D0081E00E9404
:101840004E0787E20E948E0087FFFBCF80916C00DD
:10185000816080936C008091680082608093680052
:101860001092F70F11E01093F30F61E089E30E94EB
:101870007D0064E680E30E947D00789481E10E940F
:101880008E00807E682F6F6081E10E947D00109342
:10189000F40F87E30E948E00682F697F87E30E9420
:1018A0007D0081E00E944E070E947A008EEB0E942C
:1018B0006D000BEB11E03BECE32E31E0F32EF80171
:1018C00081918F010E946D00E016F106C1F70E9420
:1018D00073008DE30E948E00682F61608DE30E948B
:1018E0007D008CE0E7E0F2E0DE01119601900D92C0
:1018F0008A95E1F78091A70F9091A80F2091A90FE9
:101900003091AA0F4091AB0F4091AC0F4091AD0FB9
:101910004091AE0F3F932F939F938F938CEC91E068
:101920009F938F938FE491E09F938F930E9427144E
:1019300081EE91E09F938F930E9427148AE090E0BC
:101940000E943B140FB6F894DEBF0FBECDBF8CECE7
:10195000E82E81E0F82E0FE411E092EFA92E91E03D
:10196000B92E4E019DE0890E911C2EEF622E21E0D2
:10197000722E8091A70F9091A80F2091A90F3091FE
:10198000AA0F4091AB0F4091AC0F4091AD0F409129
:10199000AE0F3F932F939F938F93FF92EF921F93DE
:1019A0000F930E942714BF92AF920E9427148AE0DF
:1019B00090E00E943B148DE30E948E00682F6460CB
:1019C0008DE30E947D000FB6F894DEBF0FBECDBF41
:1019D00080911D01833009F087C08091F60F81113D
:1019E00083C084E20E948E0090E0919581959109D8
:1019F0008C399F4F0CF078C081E00E944E0781E047
:101A00000E944E0787E20E948E0087FF87C00E94D7
:101A10007A0080E80E946D008FE00E946D0082E0F5
:101A20000E946D008091F30F0E946D0080E00E9483
:101A30006D00CE0101966C01F60181916F010E944B
:101A40006D00C814D904C1F70E94730084E00E949D
:101A50004E0788E20E948E0083FF65C081E00E94ED
:101A60004E078091A70F9091A80F2091A90F309158
:101A7000AA0F4091AB0F4091AC0F4091AD0F409138
:101A8000AE0F3F932F939F938F93FF92EF921F93ED
:101A90000F930E9427147F926F920E9427148AE06E
:101AA00090E00E943B1488EE93E00E943C070FB642
:101AB000F894DEBF0FBECDBF5CCF6AEA8FE20E9412
:101AC0007D0085E090E00E943C0792CE65E58FE2C4
:101AD0000E947D0085E090E00E943C078FCE6181EE
:101AE0000E947D001F5F91CEF89480911D0183308C
:101AF00061F48091F60F882341F081E00E944E0747
:101B000088EE93E00E943C0763CF80911D018330F3
:101B100011F47894F5CF0E94A707FBCF85E090E001
:101B20000E943C076FCF85E090E00E943C0791CF78
:101B3000FC0198E0A0E8B3E001900D929A95E1F7DE
:101B400003E112E0CFE4D1E087E1A82E82E0B82ED5
:101B50009BE2C92E92E0D92E2CE3E22E22E0F22E57
:101B600088EE93E00E943C0780918203909183036A
:101B70000E9434058823A1F38091A70F9091A80FAC
:101B80002091A90F3091AA0F4091AB0F4091AC0F5B
:101B90004091AD0F4091AE0F3F932F939F938F9342
:101BA0001F930F93DF93CF930E942714BF92AF929E
:101BB0000E9427148AE090E00E943B148DB79EB7E4
:101BC0000A960FB6F8949EBF0FBE8DBF8091561037
:101BD00090915710892B21F68091A70F9091A80F13
:101BE0002091A90F3091AA0F4091AB0F4091AC0FFB
:101BF0004091AD0F4091AE0F3F932F939F938F93E2
:101C00001F930F93DF93CF930E9427148091591055
:101C10008F93809158108F93DF92CF920E94271458
:101C20008AE090E00E943B148091A70F9091A80F4A
:101C30002091A90F3091AA0F4091AB0F4091AC0FAA
:101C40004091AD0F4091AE0F3F932F939F938F9391
:101C50001F930F93DF93CF930E94271480915D1001
:101C60008F9380915C108F93FF92EF920E942714C4
:101C70008AE090E00E943B148DB79EB748960FB65D
:101C8000F8949EBF0FBE8DBF6BCFFC016280738046
:101C90008091A70F9091A80F2091A90F3091AA0FC2
:101CA0004091AB0F4091AC0F4091AD0F4091AE0F02
:101CB0003F932F939F938F9382E592E09F938F930F
:101CC0008FE491E09F938F930E9427148CE592E01C
:101CD0009F938F930E9427148AE090E00E943B1408
:101CE0002DB73EB7265F3F4F0FB6F8943EBF0FBEED
:101CF0002DBF02E512E0CFE4D1E08DE6882E82E030
:101D0000982E97E1E92E92E0F92E27EB422E22E061
:101D1000522E39E8C32E32E0D32E41EAA42E42E0FF
:101D2000B42E84E690E00E943C078091A70F90912A
:101D3000A80F2091A90F3091AA0F4091AB0F4091AD
:101D4000AC0F4091AD0F4091AE0F3F932F939F93F7
:101D50008F931F930F93DF93CF930E9427149F922B
:101D60008F920E9427148AE090E00E943B14C301E6
:101D70000E943405EDB7FEB73A960FB6F894FEBF51
:101D80000FBEEDBF882369F28091A70F9091A80F35
:101D90002091A90F3091AA0F4091AB0F4091AC0F49
:101DA0004091AD0F4091AE0F3F932F939F938F9330
:101DB0001F930F93DF93CF930E942714FF92EF920C
:101DC0000E9427148AE090E00E943B148DB79EB7D2
:101DD0000A960FB6F8949EBF0FBE8DBF8091561025
:101DE00090915710892B09F059C08091A70F9091BD
:101DF000A80F2091A90F3091AA0F4091AB0F4091ED
:101E0000AC0F4091AD0F4091AE0F3F932F939F9336
:101E10008F931F930F93DF93CF930E94271480918A
:101E200059108F93809158108F93DF92CF920E9418
:101E300027148AE090E00E943B148091A70F9091B4
:101E4000A80F2091A90F3091AA0F4091AB0F40919C
:101E5000AC0F4091AD0F4091AE0F3F932F939F93E6
:101E60008F931F930F93DF93CF930E94271480913A
:101E70005D108F9380915C108F93BF92AF920E9400
:101E800027148AE090E00E943B148DB79EB74896D5
:101E90000FB6F8949EBF0FBE8DBF43CF8091A70FA2
:101EA0009091A80F2091A90F3091AA0F4091AB0FEC
:101EB0004091AC0F4091AD0F4091AE0F3F932F93E7
:101EC0009F938F931F930F93DF93CF930E942714B9
:101ED000809157108F93809156108F935F924F92FD
:101EE0000E9427148AE090E00E943B142DB73EB771
:101EF000245F3F4F0FB6F8943EBF0FBE2DBF11CFEA
:101F0000CF93DF9300D000D000D0CDB7DEB7DC0197
:101F100016960D911C9184E690E00E943C07D12C0E
:101F2000C12C82E6A82E83E0B82E1801B8E02B0E53
:101F3000311C2801E1E14E0E511C94E0692E712CF8
:101F400084E690E00E943C071092620380915F104B
:101F5000909160100E94CF130A97C1F7BF92AF9281
:101F600083ED92E09F938F930E946C141092571010
:101F700010925610D0925910C0925810B0925D1025
:101F8000A0925C106EE170E082E693E00E94C413C0
:101F900090935B1080935A10EFEFFFEFFD83EC837B
:101FA0000F900F900F900F9080E00FB6F8940F9263
:101FB000D8015A962C915A975B969C915B9729175A
:101FC00008F09AC05A96BC91BE83F801448D411125
:101FD00079C080819181892B09F061C0E480F5800E
:101FE000E114F10409F458C0D70194968C919497A8
:101FF000815094968C93949756962C9156979396DD
:102000009C91291709F448C0811146C04701B2E0EC
:102010008B0E911CC4010E949803F70183A1868B4B
:10202000282F30E0A301421B530B55874487909122
:102030004D10981710F480934D1089E0829FF001A5
:10204000839FF00D1124E75DFF4E0180F281E02DAA
:10205000D7011596FC93EE9314978481958117967A
:102060009C938E931697A481B58113969C928E9221
:10207000129795828482D7015696EC91B9E0EB9F36
:10208000F0011124E75DFF4ED7011B96FC93EE9300
:102090001A9780818F5F8083F801158214828E8168
:1020A0008F5FD8015A968C935A9751968C918823BA
:1020B00019F0C2010E9410010F900FBEBFEFCB1AA2
:1020C000DB0A3ECF50E066E570E1828193810E9499
:1020D0001714F801848D22813381820F932F911D73
:1020E000938382832481358182179307C0F2808194
:1020F000918193838283D3CF2C813D81232BE1F285
:10210000811109C08091551089838091531090915D
:1021100054109B838A830F900FBE0E9450030FB60A
:10212000F8940F92F801858D8F3F09F4158ED80130
:102130005E968C915E978F3F11F45E961C920F9085
:102140000FBEBE016C5F7F4FCE0101960E94DD0085
:1021500081112AC00FB6F8940F92F801928D0F905A
:102160000FBE838D98131AC0EC80FD8060915110D2
:1021700070915210645F7F4FC1010E94BC0361E007
:10218000C7010E94F203C8010E9456030E948D02FB
:10219000811102C00E94740481E007CFC8010E942F
:1021A00056030E948D02F8CFC8010E9456030E9478
:1021B0008D0284CF1F920F920FB60F9211240BB68F
:1021C0000F920F931F932F933F934F935F936F93B0
:1021D0007F938F939F93AF93BF93CF93EF93FF938F
:1021E00081E08093F70F80911D01833009F06DC06D
:1021F00088E20E948E0082FF68C081E00E944E0744
:102200000E947A0080E00E946D0080E00E946D00D4
:102210008093F60F8091F60F833418F082E4809358
:10222000F60F80E00E946D008093F50F8091F40F0F
:1022300081110AC09091F50F8091F30F981721F04A
:102240008091F50F811104C08091F60F8330E0F486
:102250001092F60F0E9473000E94A707FF91EF9162
:10226000CF91BF91AF919F918F917F916F915F912E
:102270004F913F912F911F910F910F900BBE0F9097
:102280000FBE0F901F9018958091F60F835080938A
:10229000F20F80E00E946D008093F10F80E00E94B9
:1022A0006D00C0E08091F20FC817F8F08091F20F36
:1022B0008D3330F4E091F20FF0E0ED54F04F1082E6
:1022C0000E94730083E00E944E0784E20E948E0009
:1022D00090E0919581959109959587959093B20F8E
:1022E0008093B10F1092F70FB9CF0C2F10E080E060
:1022F0000E946D00F801ED54F04F8083CF5FD2CF84
:102300001F920F920FB60F9211240BB60F922F93BC
:102310003F934F935F936F937F938F939F93AF936D
:10232000BF93EF93FF932091A70F3091A80F409197
:10233000A90F5091AA0F6091AB0F7091AC0F8091D3
:10234000AD0F9091AE0FA1E00E940B142093A70F48
:102350003093A80F4093A90F5093AA0F6093AB0F2F
:102360007093AC0F8093AD0F9093AE0F0E94B501A8
:10237000FF91EF91BF91AF919F918F917F916F915D
:102380005F914F913F912F910F900BBE0F900FBE19
:102390000F901F9018951F920F920FB60F92112455
:1023A0000BB60F922F933F934F935F936F937F934F
:1023B0008F939F93AF93BF93EF93FF938091A70F5A
:1023C0009091A80F2091A90F3091AA0F4091AB0FC7
:1023D0004091AC0F4091AD0F4091AE0F3F932F93C2
:1023E0009F938F9388E692E09F938F938FE491E081
:1023F0009F938F930E9427148091511090915210B7
:102400002DB73EB7285F3F4F0FB6F8943EBF0FBEC3
:102410002DBF892B51F18091511090915210499606
:102420009F938F938CED92E09F938F930E9427143C
:102430008AE090E00E943B140C9400000F900F90F3
:102440000F900F90FF91EF91BF91AF919F918F915E
:102450007F916F915F914F913F912F910F900BBEA4
:102460000F900FBE0F901F90189590E080E0D8CF8E
:10247000AF92BF92CF92DF92EF92FF920F931F9392
:10248000CF93DF9398E18FE00FB6F894A8959093DF
:1024900060000FBE80936000809160008064809334
:1024A000600080916000877F8093600010928000C0
:1024B00088E0809381008091810082608093810018
:1024C0002CED35E0309389002093880080916F00D7
:1024D000826080936F001092A70F1092A80F109245
:1024E000A90F1092AA0F1092AB0F1092AC0F10927E
:1024F000AD0F1092AE0F78941092C5008DE48093CA
:10250000C4009093C10086E08093C2008EE091E009
:102510009093621080936110909364108093631085
:1025200080E091E09093601080935F10789404EBCA
:1025300013E021E050E040E06EE073E08DE59AE0CA
:102540000E94070888E00E94110A8C019093910371
:102550008093900388E00E94110AEC0190938F030E
:1025600080938E0389E00E94110A6C0190938D0381
:1025700080938C0389E00E94110A7C0190938B0365
:1025800080938A0388E00E94110A5C01909389037A
:102590008093880388E00E94110A1092970310929A
:1025A00096031092950310929403B0929B03A0920D
:1025B0009A039093990380939803B0929F03A092FB
:1025C0009E0390939D0380939C03D092A303C0929B
:1025D000A203F092A103E092A003D092A703C092BD
:1025E000A603F092A503E092A4031093AB0300931B
:1025F000AA03D093A903C093A8031093AF03009339
:10260000AE03D093AD03C093AC031092B30310920A
:10261000B2031092B1031092B0030CEB13E021E06F
:102620004CEA53E06CEC71E083E69BE00E94070803
:102630000AEB13E021E044EA53E063E172E088E949
:102640009DE00E94070808EB13E021E04CE953E00D
:1026500063E173E085E49EE00E94070806EB13E067
:1026600021E044E953E067E173E080E89FE00E94E5
:1026700007088BE193E00E944114CBE0CF9388EBF5
:102680008F932091BE033091BF0387EB9BE0821BA9
:10269000930B9F938F938DE393E09F938F930E946F
:1026A000271484B71F928F9380E593E09F938F93B5
:1026B0000E94271402E913E020E050E040E06DE5BD
:1026C00073E089EF95E00E9407082DB73EB7265FBB
:1026D0003F4F0FB6F8943EBF0FBE2DBF813009F0BB
:1026E00044C0F8942FEF3FEF3093A40F2093A30F33
:1026F00080934F1010925410109253101092890032
:102700008AEB80938800C093810080916F00826083
:1027100080936F00A0915110B0915210CD91CDBF18
:10272000DD91DEBFFF91EF91DF91CF91BF91AF912E
:102730009F918F917F916F915F914F913F912F91D9
:102740001F910F91FF90EF90DF90CF90BF90AF90CF
:102750009F908F907F906F905F904F903F902F90C1
:102760001F900F900FBE0F90089580911C0190E074
:1027700080E0DF91CF911F910F91FF90EF90DF905C
:10278000CF90BF90AF900895FC01615070400190D0
:102790000110D8F7809590958E0F9F1F0895CF93C5
:1027A000DF93EC012B8120FF1AC026FF0CC02F7B8A
:1027B0002B838E819F8101969F838E838A8190E0F7
:1027C000DF91CF91089522FF18C0E881F9818081BF
:1027D000082E000C990B009729F420622B838FEFB1
:1027E0009FEFEECF3196F983E8832E813F812F5FF3
:1027F0003F4F3F832E839927E3CFEA85FB850995D9
:1028000097FFF3CF2B81019621F080E2822B8B83FF
:10281000E6CF80E1FBCF0024A7FD00942A0F301DF6
:10282000401D501D601D701D801D901D0895FB01F1
:10283000DC0102C001900D9241505040D8F708953C
:10284000DC0101C06D9341505040E0F70895CF93F3
:10285000DF93CDB7DEB7AE014B5F5F4FFA016191F9
:102860007191AF0180916110909162100E9480146B
:10287000DF91CF91089560916110709162100C9476
:1028800065190F931F93CF93DF93E0916110F0913F
:1028900062102381EC0110E000E021FD08C00FEF81
:1028A0001FEF14C00995892B11F00FEF1FEF8991CD
:1028B0006091611070916210DB011896ED91FC91AE
:1028C0008111F0CF8AE00995892B49F7C801DF9182
:1028D000CF911F910F910895CF93DF93CDB7DEB7BE
:1028E000AE014B5F5F4FFA0161917191AF01809131
:1028F0005F10909160100E942D18DF91CF91089584
:102900002F923F924F925F926F927F928F929F92FF
:10291000AF92BF92CF92DF92EF92FF920F931F93ED
:10292000CF93DF93CDB7DEB72B970FB6F894DEBF0A
:102930000FBECDBF7C013B018A01FC0117821682CC
:10294000838181FFDDC1CE0101965C01F701938196
:10295000F30193FD859193FF81913F01882309F451
:1029600053C1853239F493FD859193FF81913F01E5
:10297000853229F4B70190E00E946519E7CF912CC8
:10298000212C312CFFE1F31538F08B3211F190F44A
:10299000803209F1833229F137FC3CC020ED280F49
:1029A0002A3050F536FE20C08AE0989E200D112472
:1029B000922E06C08D3291F0803371F7689430F812
:1029C000F30193FD859193FF81913F018111DACF4E
:1029D00021C0689431F8689432F8F2CF689433F8E3
:1029E000EFCF689434F8ECCFEAE02E9E200D11244E
:1029F000222E689435F8E4CF8E3229F436FC04C1D7
:102A0000689436F8DDCF8C3619F4689437F8D8CF4F
:102A10008836B1F2982F9F7D95549330E0F083363D
:102A2000A1F18337C1F1833509F063C02801F2E0D9
:102A30004F0E511CF801C080D180692D70E036FC2A
:102A400002C06FEF7FEFC6010E945A194C016894D3
:102A500037F882010AC00C5F1F4FFFE3F983882417
:102A60008394912C6501E89437F833FE2DC0522CE5
:102A70008114910471F5552009F468CFB70180E203
:102A800090E00E9465195A94F6CFF80180818983FD
:102A90000E5F1F4FE4CF2801F2E04F0E511CF801EA
:102AA000C080D180692D70E036FC02C06FEF7FEFEF
:102AB000C6010E94C4134C018201D5CFB70180E248
:102AC00090E00E9465192A942814190409F0B0F7BF
:102AD000CECFF60137FC859137FE81916F01B701AA
:102AE00090E00E94651951105A94F1E08F1A9108F4
:102AF000BFCF843619F0893609F077C0F80137FE68
:102B00006BC060817181828193810C5F1F4FF32DB7
:102B1000FF763F2E97FF09C090958095709561953F
:102B20007F4F8F4F9F4F689437F82AE030E0A50120
:102B30000E94AD19C82ECA188C2C432C36FE0CC02E
:102B4000E89440F8C91440F434FE05C032FC03C0D8
:102B5000F32DFE7E4F2E892C44FEAAC0FE01EC0D03
:102B6000F11D8081803309F09CC0242D297E422EE6
:102B7000842D8870582E43FCAAC040FEA4C09C2C13
:102B8000821418F42C0C922C981844FEA6C0B7019D
:102B900080E390E00E94651942FE09C088E790E05A
:102BA00041FE02C088E590E0B7010E946519C91492
:102BB00008F49FC0CA94D12C9FEFC91AD90ACA0C35
:102BC000DB1CF60182916F01B70190E00E9465194C
:102BD000AC14BD04B1F74FCF60817181072E000C9A
:102BE000880B990B0E5F1F4F92CFD32CE894D4F82B
:102BF0002AE030E08537E1F1232D297FD22E8F3670
:102C0000A9F1F0F4883551F1F701868197812B966F
:102C10000FB6F894DEBF0FBECDBFDF91CF911F91ED
:102C20000F91FF90EF90DF90CF90BF90AF909F906B
:102C30008F907F906F905F904F903F902F9008956E
:102C4000803749F0883701F7D4FE02C06894D2F883
:102C500020E130E00DC06894D4F8F6CF34FE03C014
:102C6000822F8660D82E20E132E002C028E030E0DA
:102C7000F801D7FE0FC060817181828193810C5F62
:102C80001F4FA5010E94AD19C82ECA183D2CE8940B
:102C900037F852CF6081718190E080E00E5F1F4F66
:102CA000F0CF42FC02C0839463CF8394839460CFBF
:102CB000842D867809F45CCFF6CFB70180E290E0EE
:102CC0000E94651983948214C0F3512C5ECF522C5C
:102CD0005818821408F459CFF8CF842D867809F457
:102CE00066CF8BE241FE80E247FC8DE2B70190E0C7
:102CF0005CCFB70180E390E00E9465199A9457CFAA
:102D00008FEF9FEF84CF20FD09C0FC0123FD05C09C
:102D100022FF02C07383628351834083089544FD80
:102D200017C046FD1DC0DB01FC01AA0FBB1FEE1F33
:102D3000FF1F1094D1F76A0F7B1F8E1F9F1F660F16
:102D4000771F881F991F620F711D811D911D0895A6
:102D500033E0660F771F881F991F3150D1F7F3CFEB
:102D600034E0F7CF0F931F93CF93DF938C01C8010B
:102D70000E94CF13EC0197FD08C00E944619892BD1
:102D8000B1F7B801CE010E949519CE01DF91CF9124
:102D90001F910F9108958F929F92AF92BF92EF92E1
:102DA000FF920F931F93CF93DF938C01D62F7A015D
:102DB000B22E0E94CF139C0133272B32310529F00C
:102DC0002D323105A9F46894B7F8D15061F480E050
:102DD000DF91CF911F910F91FF90EF90BF90AF9037
:102DE0009F908F900895C8010E94CF1397FDEFCF59
:102DF000CB2DCD7F2B2D2073F9F48033E9F4AA2459
:102E0000AA94AD0E89F0C8010E94CF1397FD0CC0A3
:102E1000282F2F7D283561F4C264D25029F0C801D3
:102E20000E94CF1397FF08C0812C912C54011BC026
:102E3000B6FE2BC0C260DA2D812C912C540120EDFE
:102E4000280F283028F1C4FD09C02A3008F1C6FF38
:102E500005C02F7D3FEE320F3630C8F0B8010E941A
:102E60009519C1FFB4CFC7FF08C0B094A094909447
:102E70008094811C911CA11CB11C2C2FB501A401B4
:102E8000C7010E94831681E0A3CFC261D4CF27502F
:102E90004C2FC501B4010E948F164B015C01C2602A
:102EA000D15009F3C8010E94CF1397FFC8CFD9CFE3
:102EB0007F928F929F92AF92BF92CF92DF92EF92CA
:102EC000FF920F931F93CF93DF93CDB7DEB7A097F9
:102ED0000FB6F894DEBF0FBECDBF5C01962E7A010F
:102EE000CE0101966C0180E2F60111928A95E9F714
:102EF000F501B381890130E020E0712C812CA0E044
:102F000041E050E0F801B3FD8591B3FF8191982F26
:102F10008F01811117C010E000E0C801A0960FB624
:102F2000F894DEBF0FBECDBFDF91CF911F910F91FF
:102F3000FF90EF90DF90CF90BF90AF909F908F90D9
:102F40007F9008958E3519F42115310541F1A217AE
:102F500013064CF48D3549F18D3229F4811006C0E9
:102F6000882483941DC0882009F464C0E92FE69565
:102F7000E695E695EC0DFD2DF11D892F8770BA01C0
:102F800001C0660F8A95EAF78081682B6083791605
:102F900051F0971510F49F5FE9CF9150E7CFA1E072
:102FA0002F5F3F4FAFCF812CFBCF882019F08E8150
:102FB00080628E83AA2359F0F6019E012F5D3F4F58
:102FC0008081809580833196E217F307C9F78824C2
:102FD0008394C5010E94CF1397FD16C0E82FE69594
:102FE000E695E695EC0DFD2DF11D208130E0AC015C
:102FF0004770552702C0359527954A95E2F720FD81
:1030000006C0B5010E949519882069F084CFE114AB
:10301000F10429F0F7018083C70101967C019A949D
:10302000812C9110D6CFE114F10409F476CFF70189
:10303000108273CFE82FE695E695E695EC0DFD2D11
:10304000F11D982F9770BA0101C0660F9A95EAF7A3
:103050009081692B6083782EA3CF5F926F927F92CD
:103060008F929F92AF92BF92CF92DF92EF92FF9298
:103070000F931F93CF93DF936C01EB015A01FC0177
:1030800017821682512CF601E380FE01E3FC859144
:10309000E3FE8191182FEF018823E9F090E00E9470
:1030A0004619892B21F0C6010E94B216ECCF1532C9
:1030B00041F4FE01E3FC1591E3FE1191EF0115329D
:1030C00069F4C6010E94CF1397FD8EC01817D9F27C
:1030D000B6010E949519852D90E08AC000E01A3251
:1030E00031F4E3FC1591E3FE1191EF0101E0F12CC5
:1030F00020ED210F2A3048F101FF37C0FF2059F39E
:103100001836B1F11C3609F43DC0112321F3612FAB
:1031100070E08CE890E00E944F19892BE1F2912C2D
:10312000812C00FD06C0F50180809180C5010296CA
:103130005C011E3679F5F6014681578170E060E04A
:10314000202FC4010E9483169ECF02606F2D70E075
:1031500090E080E040E20E948F16F62EFE01E3FC34
:103160001591E3FE1191EF01C3CFFF24FA94C8CF6C
:10317000FE01E3FC1591E3FE1191EF01183609F011
:10318000C4CF08600460FE01E3FC1591E3FE1191D9
:10319000EF01BBCF1336C1F401FD02C0FF24F3944D
:1031A000C6010E94CF1397FD1FC08114910429F01E
:1031B000F4018083C40101964C01FA94F110F0CF20
:1031C00000FD61CF53945FCF1B3511F59E01A40123
:1031D0006F2DC6010E945817EC01892B89F7F60163
:1031E0008381807309F477CF8FEF9FEF511073CFF6
:1031F000DF91CF911F910F91FF90EF90DF90CF90D3
:10320000BF90AF909F908F907F906F905F90089548
:10321000C6010E94B21697FDE7CF1F36A9F130F420
:10322000143641F0193639F0006405C01337B9F08F
:103230001537D1F70062202FA4016F2DC6010E941F
:10324000CB168111BDCFCBCF8114910429F0F401AD
:103250006082C40101964C01FA94FF2071F0C6010E
:103260000E94CF133C0197FD08C00E944619892B8C
:1032700059F3B601C3010E9495198114910409F410
:103280009FCFF40110829CCF0061D5CF91110C9497
:103290000B1A803219F089508550C8F70895FC0147
:1032A0000590061621F00020D9F7C0010895319746
:1032B000CF010895FC010590615070400110D8F7CE
:1032C000809590958E0F9F1F08950F931F93CF9316
:1032D000DF93182F092FEB018B8181FD09C01FEFB0
:1032E0000FEF812F902FDF91CF911F910F910895B4
:1032F00082FF14C02E813F818C819D812817390760
:103300003CF4E881F981CF01019699838883108389
:103310008E819F8101969F838E83E3CFE885F98517
:10332000812F0995892BA1F3DACFFB01238120FF9F
:1033300011C026FD0FC08F3F980771F082832F7D4B
:1033400020642383268137812150310937832683E6
:10335000992708958FEF9FEF0895FA01AA27283043
:1033600051F1203181F1E8946F936E7F6E5F7F4F52
:103370008F4F9F4FAF4FB1E03ED0B4E03CD0670FCE
:10338000781F891F9A1FA11D680F791F8A1F911D21
:10339000A11D6A0F711D811D911DA11D20D009F471
:1033A00068943F912AE0269F11243019305D3193B3
:1033B000DEF6CF010895462F4770405D4193B3E09C
:1033C0000FD0C9F7F6CF462F4F70405D4A3318F043
:1033D000495D31FD4052419302D0A9F7EACFB4E0F4
:1033E000A6959795879577956795BA95C9F70097AC
:1033F0006105710508959B01AC010A2E069457954D
:10340000479537952795BA95C9F7620F731F841FA3
:10341000951FA01D0895992788270895F894FFCF38
:1034200000000001000000000000EE0500000000A8
:103430000002000000009E00000000000301626125
:103440006C6C732C207765206F75747461207374B5
:1034500061636B206F6E2025730062616C6C732C4E
:10346000207765206F757474612068656170002530
:103470002D31307320282530386C646D73293A2043
:1034800000686561702075736564202564202F20B5
:10349000256400646C6C20737461636B206C6566DA
:1034A00074202564006E657420737461636B206CF6
:1034B0006566742025640074726E20737461636B9A
:1034C000206C6566742025640061707020737461DF
:1034D000636B206C656674202564003131313131B5
:1034E000313131313131313131313100646C6C0085
:1034F0007374617274656420646C6C206D61696EB4
:1035000000646C6C20696E69746564207261646922
:103510006F00646C6C2073656E64696E6700646C28
:103520006C2073656E7400546573742073747269D3
:103530006E67006E65740072656369657665642008
:1035400066726F6D2071756575650072656365697A
:10355000766564203A2049442025640072656369D9
:103560007665642066726F6D20746F70203A202536
:1035700073007472616E73706F7274007374617231
:103580007465642054524E206D61696E0054524E31
:10359000206177616974696E67206F6E2075707045
:1035A00065722071756575650072657175657374F6
:1035B0002072656365697665643A20494420256414
:1035C0000072656365697665642066726F6D20744C
:1035D0006F703A202573006D797374657279206D70
:1035E00065737361676520726563656976656420DC
:1035F00025640073656E643A2025730077617463F7
:1036000068646F672074696D65722074696D6564A4
:10361000206F757420696E202025732C20726573CD
:10362000657474696E672073797374656D004857AB
:1036300063680074726E00617070000D0A467265F6
:103640006552544F5320696E697469616C69736582
:103650006420616E642072656164792E0068656122
:1036600070206C656674202564202F2025640A0074
:103670006D637573723A20253032780A0049444CE4
:02368000450003
:00000001FF
