:100000000C9446000C945D000C945D000C945D0013
:100010000C945D000C945D000C945D000C945D00EC
:100020000C945D000C945D000C945D000C945D00DC
:100030000C945D000C945D000C945D000C945D00CC
:100040000C945D000C945D000C945D000C945D00BC
:100050000C945D000C945D000C945D000C945D00AC
:100060000C945D000C945D000C945D000C945D009C
:100070000C945D000C945D000C945D000C945D008C
:100080000C945D000C945D000C945D0011241FBE67
:10009000CFEFD0E4DEBFCDBF11E0A0E0B1E0EAEEEB
:1000A000F0E000E00BBF02C007900D92A030B10756
:1000B000D9F70E945F000C9473000C940000279AFB
:1000C0002CE231E02F9A88EE93E0F9013197F1F7B5
:1000D0000197D9F72F9888E293E2F9013197F1F768
:0A00E0000197D9F7EFCFF894FFCF96
:00000001FF
