:200000000C944C000C946B000C946B000C946B000C946B000C944A000C946B000C946B00C8
:200020000C944B000C946B000C946B000C946B000C946B000C9400000C946B000C946B00F3
:200040000C946B000C946B000C946B000C946B000C946B000C946B000C946B000C946B0048
:200060000C946B000C946B000C946B000C946B000C946B000C946B000C946B000C946B0028
:200080000C946B000C946B000C946B006364696E6F70737578585B0011241FBECFEFD0E42B
:2000A000DEBFCDBF20E0A0E2B1E001C01D92A032B207E1F711E0A0E0B1E0E0E0F0E100E0BE
:2000C0000BBF02C007900D92A032B107D9F70E9408000C9400080C9400008E910824023095
:2000E00019C48CA008942C008091C000811100C0409000000C08C8040801CF910891100248
:2001000004040000080009000000000004000000049460000000C21008040000080048009C
:2001200000800200000408000C0000000080210008040000000080000800080008000800D8
:20014000001009000C800200000000000000000004844000000000000804010000800000A3
:2001600000800200009000000080010000800A000884000000040000000408000090020034
:2001800000000800048042000000000001000102001021100010010010000210CC000080CD
:2001A0000C910C9100800080100001800512011000010192010080009080E000D0010080F6
:2001C0000004008000000000001000000990009000020800000000800000800100800400D3
:2001E00070000011000000100000000001100080008008900C90089008110901021110014A
:200200008001041020000D01000000900400000100900000809000000080010080808800DD
:200220000E905A000C0004904D0000800680050000000480010000058081000001810000C1
:2002400000000000808000800A008000C000009000040091040000010001010001800084A3
:200260008091C2010091000000800011010000810001000020010000800100818081800061
:200280002080030104000481000180810000810100800000000010100001100000010012E9
:2002A000280020900000808088010110010000800091010000118001208108000001000479
:2002C0000090080000800000000100000011080000800201000500818001008000010000E1
:2002E0004001000101000016180200900080008080000080000400010000000002061307D4
:2003000080838001801380018080011080910210068156908C9008152091810080918005A3
:200320000580C681000500800400A00100009381A0061006289100811185008100810480A1
:200340000581DC01159618830A8314960481068110010280908084830083800102000901F7
:2003600000810800510700E01A83298213820282088101100883808180090011C0C000819A
:2003800000004081000068010D83680260087080000020820000011401001890009192015D
:2003A0000011180F0011100720901006309348030093100A108200010010000380810000B5
:2003C0000E0600131000009010000091000110002400A806110600900880A0019003A0814E
:2003E000100600810011048007830683109224010091000780009B818A8115900C918E9058
:2004000004900081A091D001100080000000B281A005048087018001028180818004900038
:200420000801008490818001808106012581CC0015920C930E93049306810780D80003922A
:20044000809104020010800100060081200000112800009022020803018000802001201003
:200460002001A080A080108041E00081170500012080E90111800C8020014081830110812E
:20048000080100960190108002941F01001110030005010701F410921801009211050080DD
:2004A00004000C90011000808681009108100A111090A0900810420110000100A011A408A7
:2004C00011800480348180099181A00114820C81008111812401228300822D012411150715
:2004E000010009810881109604130603009402808493800111040008140A808180008C919B
:2005000082058081008180814001108140010182008340010081400109838A82CF000292BA
:2005200011920D911C91029608140902009002060010009300070080020600112040009142
:2005400000000001000020101000A09010003080C000112000408001000001102080A0293E
:2005600011800480100040915001109151032083009001800C9015018101108380030196AA
:200580008893009210071080100F8001000406100A0E808082818C910F110C91A090210007
:2005A0000091020016968C91981100801489408144050089808120008D03808300008081D1
:2005C0000C0103830A80800104010F4700920D010091100104110404010000901C01800095
:2005E000118705821482009100000C13208120040081940120811501200131802C822080E4
:20060000308181010083800100010200109009010001121700160100000410905080408081
:2006200001800006100600910010040180810001000002171090A00100102A0100001100CF
:2006400082019F00019008908C918001B401A08110840081108104813581640114822C8152
:20066000448115818B018A83008205909C9102930417960101941000100082111106118605
:2006800000868C9181508C93809101108091001006920C91881308900C01400180011181BB
:2006A000800102068F1F800380040801AF80B88002920D918C91139380010282E8000D821B
:2006C0000C81340180810006F0100080101610800087880100800F1E0082D8900F901D8137
:2006E0000E010880C80010140180101010908901088109800416950188911A810F91DF9027
:200700008C000801880100020991C401028000018001008180030000888188818801119214
:2007200044010E9010010101008300070000D90180818F1380018081818100818180008135
:200740001101800100800C8080008081800180810104890180910091840590002104001078
:2007600088800E921094018200808801801088010C900F90009100050091030182139303F7
:200780008001A1018081800180010004801180050090880100819805009609908C80109304
:2007A00083010083A0018081AC01200320800296F001C293100511040005F8018081811187
:2007C00000808801C991011008010080C0011000019130011104E1014801108180038101B2
:2007E00080939A05C2920001039380011100EC01E204000100001081000000900010800144
:2008000002000082001498038817980729F412008991809190038081C20FA0010110B00145
:2008200000000114F80300801081A00100009081000084819481119614920C9100950081CB
:200840000010900100000480B08002920090980180911005808101000090021000028081B9
:200860000002801000102000001088058140808380050090080E034F809000010600009130
:20088000070008010C9008940003501460010000E0000010C3010280200100005090001001
:2008A000C016100400908001800F80011004260103459A010E901E010E810F100C04100381
:2008C0008001000390010007001321050090A0010011000580900001C00590014004009140
:2008E000040500910005008380050092000490900D000092100420900000409041000080A7
:200900000802099001820580B680C000C680E780F70002811381081319030890158368901C
:20092000670182808F02811086010E900403C7015492809100108001001005000C920E945A
:200940000402009082018001009081008013000400801000800F80010100B0010210800170
:200960000010700100000D902C908780808082128302B09000910110809102102000010057
:200980001000020040068901858180E0008091020C01080021100F800F900F900F900F81BA
:2009A000209008108980018021100200108000958000808000041100E001890A0081882259
:2009C000980101808281009608808C800025108021822080C001000400098F08A805290598
:2009E00028240200099098010003010389000491B001840140010100A20141400100D201E2
:200A00004001040111800013020080930000208208000080000010800000C981C887848080
:200A200090A08F1181019D818C819B818A819F018C103F0101811C91019102800C91119114
:200A400003812C9001909C900190AC9001901C90019020802C9011900C90119022800C9086
:200A6000019003A00C90009500800000019204800091000000800891009000000482018039
:200A80000820000101070100008000800000000110018000110400208090009000019080AC
:200AA000110080010080042090800080808180018001800104800080008110000001110243
:200AC000000080018080050300821000008004018080000100800200008000010082008070
:200AE0008000008008000082080000010100000200A000900000009000000100801100000E
:200B0000008101000080000089000110080100800000000101040000010480000040800065
:200B200009000080001008010090400080801000100088010010000400800000009208006C
:200B4000009000000081010200101004200000000010000400800400008200000012000011
:200B60000000000400000000000101000080000400800000000004800090000000800C00CB
:200B8000008000000010000010000006200000000090040220800000008000000000068053
:200BA000100300000000000000800800000000000000000000000200009001022080000065
:200BC000000010000400040000920004000270008001040000028001008080010081C000AB
:200BE000009000000001C000100000040A002400300388000000800110038001008008000A
:200C0000100000010003800100028001009100010000000000020100008000000090000017
:200C2000008141008091000000900504001100051091000500130201009280010001000062
:200C4000000100050001800400915805009100050091080020801001000300010003000133
:200C600000020005008010002001400420010004800180010080000100808001200180002E
:200C8000000100000080000110020004010480001001800080028100800000009002800110
:200CA0008080800100000C00001600000000008002800090180080051080A0830A0680001F
:200CC000800110000100021000011000008080818000A00100820000000000111003008097
:200CE00000808001040115011400E180E08011961082208000943883008300010C810816AC
:200D000080000000C0100A00E0010A000001000000000E900002009000008000008000104D
:200D2000000010010000008004020090000000010080C00100009091000080010080001018
:200D4000080000800001020000000000008400000E808E00001060010000000000000000F7
:200D600004000001000410000001808100000000000000000800000180030001008001004A
:200D800000900000800000030001010000900000000500050884000000018001800006040C
:200DA0000E0002040003000000000001008000908200801000010000010100800090800066
:200DC00000010004200105020090080000918005008080000010000600831002C0010002CA
:200DE000C0010002800000000004000204001000800D0080870100808801080208000000E6
:200E00000001008008000080880000004000008008000800000001200090080000800080B8
:200E2000000008008280009080028A020090400180010804000000001201001100038900FC
:200E4000018002801000808210000090000000909800808100028C01000001010000000023
:200E60000002101008000C00008210800A80810004800100008002800C0100118001009069
:200E800000010000C0000200000100040000000100000000000408000080000080008001FC
:200EA0000C00000140008000800081002090880000900010200004010880810000900000CE
:200EC000800000000400800081200024080000800E90040000010000080009000C80888079
:200EE0000E900C0000000D0008000090000000000200000008000800800000000000000011
:200F000004000800010088E002000C00000481C580800E800800000020000000800000804E
:200F2000000000800000000408050000434001000000080000000110D000058208008200A2
:200F400001000008800000800000180040060000900110808008100201040080000A008060
:200F60001000000020000000000800000004000208000200800100000C0200000000200377
:200F8000000000820000010040000002008030008000000000020093408000010080100076
:200FA0000090000000811007000000800084008000821007008000020001060000811003CF
:200FC0000400000111040000400010064880008000020081000000830081000400000000CE
:200FE0000190038000021100008000003004108110010005000120021003008010020004A3
:201000000000200200830001000000010080108200001182008031000082119203820082A7
:201020000192100001920082000220020002010224022002000208800080009009022001C1
:20104000000100000081000100810001001188000180800080008080800000908000009051
:2010600000010000800000900B008001090010910A00880109900A814091080040800800D1
:201080000080050000200000028000000080108100000001040004080001100100100000E5
:2010A0000000100000000000000000000000000000000002000000011000109300000082E8
:2010C000000000800200000000000000000000001000000110000001000000000800000064
:2010E00000000000000000000000008200000080000000000000008010102002001000021A
:201100001010000000002002008010800000000200100000000000820000008021000080C8
:201120000000108000000000200000800000208000E00083100000800000008200000080EA
:20114000000000800110008000002091000020810000008010000003110010830003008072
:201160001000109300010080100120803000008028013080000100800000100000000080F0
:2011800001800080010000800000009000000090200230832002000120030000000320026D
:2011A000000200000002000000800000000300830000008000038000800100008000000120
:2011C00041000081000620900002009040000C0100801010800100108001101089010090CC
:2011E0000C01109142000091400000910000001000000080080000800080001000000010E5
:201200008700048000800010000000100000001000100E1000900010008100000080000044
:201220000001100000802010000000008001000080131500009208102001000010032800BE
:2012400000902110000000102602008100000C102001141080910810009312000083011051
:201260002091000010910000208140001000000021440080008300000000000000000010B3
:20128000008104000001001000000010000008000080000000900010000000C0009100002F
:2012A00000910000908104000011001000810010001000100010280000000000000000007E
:2012C00020010001009101000081000000800000008000000090081000920C0000120F0072
:2012E000208204001082030000800080108200000082050000830200009200000083000000
:201300000082100000830600008310000000000008001080008201000083040080010100FB
:20132000000100000080030000800000009101000000080000800100002201E010008000FB
:2013400000028100100000100000B00010000200000200000000000000000300001008000B
:20136000002200208090800200918002008000001000200C000100000091020000008000B6
:20138000080000000000800000008002009080000000080000908001100085010000000084
:2013A000000080010001000000800000009000000081080022800E01081004000482088037
:2013C0000C90000100002002008024900083041228802090000000000610110288000080F8
:2013E000008005108081000000908001001080000010800000108001001081000000000004
:20140000400000013080000011108001000000800801000000940000408252008001000087
:2014200001020C0108900110820000000400050380010000800081040000000120000000BE
:20144000009008000000010400000001400000040882200000820000021005020080028261
:2014600000000001808008170000000428001000070200000800008080800100008002807C
:20148000008021030AE00000028400020001800180810000008080000080050A00800000A4
:2014A000000001000081000A0000030C0080070081910F01170100800890000200000000B6
:2014C00081808102800881C0800209800804010000008000060040000001000180008000DF
:2014E000001104031001850200008000000000040091000100910B030E0008000800010068
:2015000000800000800108000E0400008800880000002602008020000080800000040002D2
:201520000080020000808004001008060000000600808A010000800D0081800300908C0049
:2015400004012812020280000810080241908080000400000000001000000000820000102F
:2015600000020080000000008000008002040210008080038080000C0080880100808200B7
:2015800000808302001008040000800400008E030912080000008A001000029045018100FF
:2015A0000080040002020000010010800380008100800700000080000000080400010200F8
:2015C000000020000080200030800006008120000001800A00002901008008010181220012
:2015E0000481058009820E8280808E8308840000898180810280098088808C800C808C8067
:201600000D800880848081800F800D80088000000880008008800000008000010081000278
:20162000008028000080200100800800008000000081200600800207040008020081028018
:2016400000800800008080010000040000800080808100800C12000000000614880080201C
:201660000A10090480800600000000000080000000800A0400008005009000000080210F6A
:201680000080820420030000800008001C03000391018080000000100400818002100002BC
:2016A000000006040200000002140800088010000000040000040682088000008080028CC2
:2016C00000800400004000830400808100000200000208001082040E01A00081000D00805F
:2016E000880100900100208000000080200040800001009004000000000D0D0001010C0013
:201700000800000080008703009080000000091386030E1424000000000090020200000028
:2017200000000000000002800000110080020000000010000181040002800D0000028102EA
:2017400080800800000008800A040400000500400C800000090000E0200000000E000002FD
:20176000000009800A8001810081000400800502008086020080870200810802008180012A
:20178000000180020001800C0C800A028C0100000800010009800D02000080E00880048007
:2017A0000000210000A010800C8108810C802000088000800E8000000D80088400010A84D8
:2017C000090600A48806812088260A2400208060802080A0802000008000880080000480DF
:2017E000000A00800000000000040011010400008200009080000010080000810800000012
:20180000800000010900228000808000800080008100000000800804001028008010008047
:20182000001008E000C0008004100C0200000600080020000C000400000004008080088084
:201840000004808000900000811001008000000000008001000080000800020080800000D7
:2018600000009009000000030000200000800A000000000000000000010008000000020413
:20188000860000044800000000800C000D000090440082800E900C000001000306800C00C7
:2018A0000000008000000E0000944800060000904C0002000000080001040000000070005D
:2018C00000800A00000400000000800000E000800100000000000000000000008101009087
:2018E000000000808000000080010080000000808801009000002000009108020091890079
:2019000000900A0100910A0000100C0040900C0000108A0000800E900011880000E0000068
:2019200000000190800410000C908D110880000001E000000400800000800400800000C097
:201940000480090006946000848000000C048004880E01000800010000008084A804808018
:20196000080000000100000091040020000001C0000080008000000008040000010C00814E
:2019800008000010000000008403000009004001840000000E008000008180800080021039
:2019A000020200840000839000000090030080A010800800020000810090840000010000A9
:2019C00000810000200007004000000000900105009100010010000005000090860280004A
:2019E00001C080C00010800000E091008081810100101001088000008100068000040100AD
:201A000008800000060000000200800486800694400080000804000088200600280000C0B0
:201A200000040000009010000800000000000004480048000002000012000100220002002D
:201A40000400800008000002009000008080040000010000000006000080000000000000DD
:201A600040018000000180000001000189010001880000800A000000080000108400008069
:201A80008C030C83041001108A0080800490011201800C000510689046000E94010480E0EB
:201AA0000080081409108000028000000004008000800020083000A00080008080020010E1
:201AC00005000080000000800007020000E0008000801500008010000080140008C4018092
:201AE00000002100000410008080808008000000010000901000000000B0008004000000D4
:201B000080000000020410010206009100010000010040800000000080010A8004009080B4
:201B200002000C0040808080808000800000100244000800200000800080009000010186C1
:201B4000000012800884C00080800000808010008900082000C08000000000000000200086
:201B60000000008000000001800100008000000102000000800000010090030280910800B1
:201B800000108100209000000001800100000C010090000000810005008003900F830A10A0
:201BA00011110A0080000E000400001000008000000000108200008000000010000700812D
:201BC00008060010000400910B000D9100911610809057108900219080900600001000001B
:201BE00020000900009100010090800300808403001008000010000000800810011000003F
:201C0000008002130990051300840000000100000900000008100403811009800080000433
:201C2000800000800000000080010102000108000000000000010A044000080000010000BF
:201C4000001001040000080106010301089006020110010008000C0304000000008000000E
:201C60008500801108000D0280100990080000000880008000000000040000800000091061
:201C80004000081000160D0100010C0000006100000000009001800100900003001008009D
:201CA0000001000000000000000088060001000406030E1008008883800100000201009042
:201CC000080000A008800F12080002000C80008081018A83008000008000808000042010DA
:201CE000000020810001000108060000080B00900804000002000F8001808C820002808062
:201D000000000200290000001102000000020000000000000200000080000182000000007E
:201D200000000080000000800000008000010000000000900001000000000000820000000F
:201D400000000000080A000080000001088003000110000000800400000000800000000050
:201D600000020000041400000000080000100000008000000C00000000160180000080820C
:201D80000000008000030900000020010080000000000000108000010080080300000000FA
:201DA0000000200000000000000000800010000000030603000108010E8004000880200023
:201DC0000A00001000800000008008000880001208000A02080010000B0080800090000080
:201DE00000800000080000000800000000090011080000000101000100000000000000002E
:201E000020000000080400800200049200001011001010920C9284010090040006100010CE
:201E2000001001000090480080014600470000000200000000000094000000010200808111
:201E4000280F2080A00100110201408100050091080000110004000108000900000100006F
:201E60000290100101000211070000800000000151000412801100100091800080000094F6
:201E800000108A8000000000000000000000080000000000000200000000400000000000DE
:201EA0000001000420112000000000004010200300100000000100014000040200000E01F2
:201EC000001300000A0200131A00010000000000000040000E000001041000020C004A02F8
:201EE00000002000006000400000020000010A042001200004040000200000040121000979
:201F00000301000000000000000001044022000000000000000100440000040020000120CC
:201F200000000040000000008802000180000000010C080180810E00011C04804002012429
:201F400080840080080004050012000000805800109000100E948F13009440961C920F9057
:201F600003AC92000C130F030E0000140090550000100200009258100092580090800D10C5
:201F800000920000080110C0808091800090041010910A1000135A00C1010E84BC03608006
:201FA00007000E90020008000080060208940D02800102800C9050040180048148010814E1
:201FC00000000A800802B8818801080044010010090080811180090209B0018000000180ED
:201FE0000110010009900880170104920C910493011084928C93849316920C91469393922C
:20200000808000130004008001010200010020C088020014840002940800810002808402FB
:20202000080430008000021041000080048400000010900700908003011008E0828480014F
:20204000830F800000046500800200008081C00D810100809091C203009180019001019099
:202060008091820300110480808113068010809010929102048053000694EC00B980EB9134
:20208000C0011100A7119F0087011B906C914E910A9100810F1100810801058000820E80AD
:2020A0000F1E08001A9008910091510680108003090080000E94000000900E0E80E00A105C
:2020C000490000C0008046054001808080810E04051030008081020130808007900F1000A9
:2020E0000280020000800480800680020090800090809181808191090481058100038102F2
:20210000801108000090540089830001100080800410090088010010000E00804003028616
:2021200018900F9208000580012409B4058208011E920C915E930F1311900E921C920F9069
:202140000F92AE016C1320018401009004044000800100800706609008027001800D00909C
:202160000A0E8081880300C00C80150020910000309100004013060F400106042003000012
:202180004001080480038801009002030E948500811102800E9024008180078148010E90E4
:2021A00056010E900D00288108000A9406000E940D00048018900F920F920F9201000124E4
:2021C0000B920F920F932F930F934F934F936F930F938F938F93AF93AF93CF938091840391
:2021E00080808003200180011001830000900800008008040000820F408081000E900E0381
:202200000E900A0080E002800D0080800E840100809386030090300380100810808000107D
:20222000240700A008142D000092F0040091040E01110800109180010010900108100190DB
:2022400080918503810100C08091860302102010008090000E9441000C9400000F900F90F6
:202260000F900F90AF918F918F912F910F910F914F912F910F910F910F910F900B900B904B
:202280000F900F900F9018900091900080408083A20280800E904D008092F10200800E9023
:2022A0004D00C080808182000816F89080919003000000B4809160008080600080440082F9
:2022C0000000000000000614000300000090800080E08091810080018100820080938000C8
:2022E000008131001092810020830800008000000200000068000010800F0082850F10822D
:20230000060200920706009200040092090200920A0300920B036890109285008D80809365
:2023200084008093C10000808003000088000080800310108003201080033010800300108E
:2023400080009080800321000090001020900608108020004080000040822200008189008D
:202360000090000700900C09800180030A0080016A010E901C01AC0190910901009168019A
:202380000E904C012C0100910700009206000E940C001C0010910502009204020E9010003D
:2023A000080000922303009342030E904C01109201031092200310926F0310920001A002D6
:2023C0001001A00220018003300180034001A0024001A002400180034001800336030092D9
:2023E0001D038092080290801B0380920A00908081038092000020100001401010011010FF
:2024000005030093000310030302C090020300920903000300018091010080910200009258
:202420008D0300928C0110808B0300920A00060002E000E0068013000C8400000D800A802B
:202440000E9002000481038021800E81138008807280018117800E9012010281038001A026
:20246000068003A00C801280008590E0008050070080138001804E8243806082028000813D
:202480008E800E90100184E002A0089408118080400008AA8093200080012000800080837B
:2024A00000008011000087138093000010808000888000900100809101008200808281001E
:2024C0000C81058000900100008200000080400000600083630000828500009000070092A1
:2024E000280700122A0F0092A80410920C0E009281000090040078940082050000800003AB
:202500000000100380000400009280000080800010920000808300108000401080000010FD
:20252000000080608093600080910D1030900400018001A0508040A06E8063808D818A809B
:202540000E90070088800E9011000C01109101010091000108800E901100EC0090908F000B
:2025600080908E0089800E9011006C0010900D0000900C0009800E90010A0C000091800100
:202580000001800080E00E9001001C01009189008090880088800E90010000909401001010
:2025A0001000009001001092800190908A0380120801809399038001080120921A00209258
:2025C0000C000013090380819C01009283038082820190808101C090000100920000C080E0
:2025E000A00180800002000080030093290000022A0380838903C08320021083A803008117
:202600002E0100132D0300832C031002A3030080B2010090910310822001008201E000E091
:20262000002A038064CC00E083C60020069400000A0B100000004008400060010000800943
:2026400008800A00040000C0018001804040504040E10080840000C00C900100004000E070
:2026600000804481538045A152A080000B400E040200018111800E00001002008091000047
:202680000E9000119E010091080100811200001113000C900F100D8313808F938F930090E9
:2026A0002210809113100381800110E0008001910880070402E910C00080002000E00DE5ED
:2026C00013E0898100800210000021101A0100162D010C908010308F0AA00995812009F00E
:2026E0004000D8900F811F81009100050093830380934E100000401010025200009001009D
:202700008A0180910000809101000090270082008091080020901110009052104D904D923A
:202720008D909E92AF90AF90CF90CF90AF90AF900F910F914F914F914D914E912B910F907A
:2027400018900E910F90CD905C000B008A00AC0017800680038001905D804E0001900C00A0
:20276000170003800300039000918091000110008020099043810510099093908590939070
:2027800081903F0085100894B40100400000011001009024000410048E01931508908B1279
:2027A00011918000000000F1020020F104C02C40208108010A000094168200808A80908049
:2027C00000010100000402C0080080808001008108040008910100950190006201810F0167
:2027E0008101CACF21806880208028803280224F280433802E83080420C8E885EA800894D3
:20280000000D11042200009421F080C28222098026CC00C16884002085CD001408042014FB
:202820000018500D00143010800D901D00149300C0000200019001124150000008F000807F
:20284000080100C04D0241105000C08000804901508004B402802E014B4F46010A00601021
:202860004001280000900000008000100E048000D9818800009400006100609022100094B0
:202880002500020001108100519140000110608122000080800000800000009400C008016C
:2028A000008100800815090B00C0080112E009004010600040804000490110802490008064
:2028C000010170CF82000894880248018001D58187010080008008944F100A90081418049A
:2028E000080000574E4FF20121900191270080914F00900100000E942D1851104A900080EC
:202900000F1211000F8204120990091209901780A80037924B8040806180828003810C1378
:202920000F03D301CD361E260397098090948095009441957C010B018A016800178002800F
:20294000008081010C8086000006480084000300320000C0809000F881100000002201C020
:2029600012C001003124927C0500812C00902A0084002804B10180800010011084C0002CC2
:20298000212C002C842180101820033000C000F480000820821008F0240C10000008000EE2
:2029A0002200100100E200C00A800818000C0100802600C0013200C0802110E020000090F1
:2029C00063008114009093C0809011008101C80A010048041118600002906201200010E0CC
:2029E0000E8468102410AC04A0E00E8E20011100022E00040008800B0E12094412CC000089
:202A0000689414F808C00020013460902328084F802681328821907480141130E0008200C2
:202A20008181031601B0801408B003800801D2804F0011100801C080C180490040803690D7
:202A400002800F800F8046000E905A104C0028902790000100000850080701E3D08200002F
:202A6000009490282001208005C0209404C0520C0014010000250420082420C1320000C051
:202A800000E000806001529406C060010081808102010C4F044F200102800708400CC8006F
:202AA0000000C080212850C02080008000E000E006010E04C0034000020081842301808056
:202AC00080800084040902100814180400C0B00180C29000069405100394801040011100B0
:202AE00010C0020440180010089451C0880A80088648003400C0892201F000C0400005E28C
:202B00002300008050818201808100400E0463089A14170E87EF09C0808500950080600173
:202B2000234D0540024F0080338022801080000108940419000042180C004300340008008B
:202B4000A8144018C914009410F60000321C0200930D660E470E880C001E22007001800D5F
:202B6000911D0081002000001400000D091E000080258040102043CC0A80009284809C005E
:202B8000800008000C049000880004FC00C006000000802000942001420008808800800098
:202BA000419002800881008000010E900510891008908F80CA9001001F83C912D90288008A
:202BC000D20C720182000E0091009000020421102004290021320105208060800728000067
:202BE000000080000E110F0112810300E890C4902A80208085108190000508010204891225
:202C000081F1E0C488254171230100019180001209B4A8048A940D0E89B0C8010E9019108C
:202C200007910C8028000F100810219082009210099048000E905910079008800100000430
:202C4000000109C0803601C0C060020000049028000120E00800281000F0C4CD00C00200D1
:202C6000002186600000206132E00200202000E0B80106940F00408130818281008000142D
:202C80000004800000948118800C8018310C28043500000140010080800080E0024F02418B
:202CA000D0CF025000008100200102948114400104018260015008C3C0010600800290E059
:202CC0000884410903908210809201001E824200581082100890098318838401861009B473
:202CE0004687808201B6808046BC0DA285011000140E3201800100800C0000009200118280
:202D00008A8589E7840120810900300020E00100002C00C04180408050010081009100FD07
:202D20000180002D0D008101140000000000C801A0160094D0944A0F0B1E8C1F9F114601A7
:202D4000171108119910620051108110911008901380060077100815881511500115310575
:202D600000E0A20703020C908D1149918C000800001006008800839408C008000010000088
:202D8000A127A001C60106948409CC01D111890107100A01008006028A90AA928080680239
:202DA000608209121190871110908C01C00F1000A20E00800F131C012307012031050820B9
:202DC0000930000180600880A2205150600080000F110F010081009180802190A210A300C6
:202DE000899088000094C0010E94C91297FD06C0C82DC41522052011E8048021E11420003E
:202E00002080AC000170400102800511079508802027207D000021000204921008204800DB
:202E20000484C110910408C0810080004401018034000A8080209000800C8104500000E4E2
:202E4000200F2000008040CD080022100091C69504002D2D310C100F1630880000000604DE
:202E60009011C0F79081412B00803004A08410900090011081108110A1102C02850084005A
:202E8000C7000E90031201808383C201440123004801C40114000680010442014000C20014
:202EA000C1500191C0000090080387018803C9C010800E90101089022190C6000E90AC10CE
:202EC000EC8205120190CE01C3900591C2B600910F00101048B406000C945800962C0A0026
:202EE000080101922401008096000100808088C000001200010020E00080612C0100A000F1
:202F000001E050202001210D001000F1019110008F000111100010E00020080020800122E2
:202F20002090402F00A08CA890800E9019100901E1908100810000900680A500808081808E
:202F4000450000940C0118342115300140810201100040E0002540010C1009148000024083
:202F60000824008010C0802000E004808905E604E601E2940401E12C111189018340BA00C1
:202F80000080400F8A01E2F40081602A008169001030011000C4084000409000E3CC0180AF
:202FA000235E1101AF01810C1306802001F002808020828082010890D00096010F4001049D
:202FC0008000009080010082C0010106480188048110C00100944103139416C008250095D8
:202FE0008601A4016C0DC401001420002000880101705401028000110194428582E700ED7F
:20300000000031010E908511080009908480E110D1000990B7008080870001907C000A9065
:2030200001000010C6010014B00401F466CF1700008030C400264090001420900004050078
:2030400011159820153090010040200F80016A258001080040010000A1CF4B820110110014
:20306000099094002082840001924C00EA90FF00019006010E90D9122C01830108000C00BF
:20308000100000025120B601C3000E008318811081040190180FE401000288C000600484A5
:2030A000001108000110800008908010844000320094FC010190041021F00000C901000037
:2030C000089400010E0008119401048000105040000008948011800580008A0000800A121B
:2030E0001190C3901591002E0101EB010180812C00C0010F0A200021002F1780CF00199192
:2031000008100091003600C02C801101008101012000080010E00880490189010192910037
:203120008000008106809501008091808401028648011804012500010001018150C0600055
:2031400020010001008002140EC00220080570E080800060006002800600360020002108A3
:20316000158122821101080183CF9F240894C801AA012030119120300191E8000812087087
:20318000444F084004409E01A34C118022D010802C00230F10168114001D00006804711448
:2031A000820100148111020D110081149104211020000080400001900800229411003009F2
:2031C000005D218352944F010815002506000001410182000E904817E401002B09704001E4
:2031E00002010070095431CD00420183001021C7CA818480069107918790679047908A90C6
:203200000810009000000100088001000000000400000480000006940701080081F00004D5
:203220000004001000002000000001000001009010001006000000010000000000000000A1
:20324000000000000000000000000000000000000000000000000000001464206000400036
:2032600000004310000103000040000442000001480022000001000001110000000008608B
:203280000040000000001001002005000000000003000000002001400000004000042000F0
:2032A000040006000100002008400000000021000000000044000100000060000010504134
:2032C0000001000400041400000400101200000144010001000440000000012000401000AF
:2032E00000010021002000000500140001000001001100000001010100000100001001004B
:20330000246468007100410000040000000000000C01090000040C00000162496005600070
:203320000021000109002060480073012200206E0100246C0C00032508040050000324200E
:203340002064220126010000204020013003220000230001026405640014520020252020EB
:203360004000001000206014610164696E47204F0E0015402045302030502460240062056F
:203380006009011600042004600F6900001501152100620571150111100020052040097450
:2033A00060043A0008402005000030012045211244640000000544204460401800013300F8
:2033C0000D504174644240204D6040514023002040452165405241000000200062452460EB
:2033E00022000511001561146300200541200001610570000001090124000A2404004104A5
:20340000000025112400320541656004610E04001119201400050000002308006804740030
:203420000000000000000000000046000000000000020000000014000000000001002061AE
:203440006C642020206164202E00606461202064616260202564202520006000006C6324DC
:20346000207220202530307000004844404000002D31307320282530386C646D73293A2070
:2034800000686561702075736564202564202F20256400646C6C20737461636B206C656653
:2034A00074202564006E657420737461636B206C6566742025640074726E20737461636B74
:2034C000206C6566742025640061707020737461636B206C65667420256400313131313198
:2034E000313131313131313131313100646C6C007374617274656420646C6C206D61696E5D
:2035000000646C6C20696E6974656420726164696F00646C6C2073656E64696E6700646C8F
:203520006C2073656E74005465737420737472696E67006E65740072656369657665642040
:2035400066726F6D207175657565007265636569766564203A2049442025640072656369D8
:203560007665642066726F6D20746F70203A202573007472616E73706F727400737461720C
:203580007465642054524E206D61696E0054524E206177616974696E67206F6E207570703B
:2035A000657220717565756500726571756573742072656365697665643A204944202564EF
:2035C0000072656365697665642066726F6D20746F703A202573006D797374657279206DC1
:2035E0006573736167652072656365697665642025640073656E643A2025730077617463F8
:2036000068646F672074696D65722074696D6564206F757420696E202025732C20726573B7
:20362000657474696E672073797374656D00485763680074726E00617070000D0A46726507
:203640006552544F5320696E697469616C6973656420616E642072656164792E006865612A
:2036600070206C656674202564202F2025640A006D637573723A20253032780A0049444CFE
:203680004500FFFFFFFFFFFFFFFFFFFFFFFFFFFFFFFFFFFFFFFFFFFFFFFFFFFFFFFFFFFF03
:2036A000FFFFFFFFFFFFFFFFFFFFFFFFFFFFFFFFFFFFFFFFFFFFFFFFFFFFFFFFFFFFFFFF2A
:2036C000FFFFFFFFFFFFFFFFFFFFFFFFFFFFFFFFFFFFFFFFFFFFFFFFFFFFFFFFFFFFFFFF0A
:2036E000FFFFFFFFFFFFFFFFFFFFFFFFFFFFFFFFFFFFFFFFFFFFFFFFFFFFFFFFFFFFFFFFEA
:20370000FFFFFFFFFFFFFFFFFFFFFFFFFFFFFFFFFFFFFFFFFFFFFFFFFFFFFFFFFFFFFFFFC9
:020000040001F9
:20E000000C9446F00C9465F00C9465F00C947FF10C9465F00C9465F00C9465F00C9465F05C
:20E020000C9465F00C9465F00C9465F00C9465F00C9465F00C9465F00C9465F00C9465F038
:20E040000C9465F00C9465F00C9465F00C9465F00C9465F00C9465F00C9465F00C9465F018
:20E060000C9465F00C9465F00C9465F00C9465F00C9465F00C9465F00C9465F00C9465F0F8
:20E080000C9465F00C9465F00C9465F011241FBECFEFD0E4DEBFCDBF12E0A0E0B1E0EAE81F
:20E0A000F3EF01E00BBF02C007900D92A032B107D9F722E0A0E2B2E001C01D92A836B20764
:20E0C000E1F70E945CF60C94C3F90C9400F0CF93DF9360914802635067FD81C080914502C9
:20E0E000CCE0D0E0C81BD109C45BDD4F809144028D3209F062C0683009F06FC083EC809349
:20E1000038028AE580930101109220028881807621F0CE010E943AF33DC08A8110924102E2
:20E120009981911106C01092420221E432E082E02CC0953019F48093490219C0963089F4C6
:20E140008B81813021F0823011F0833029F4CE010E9409F390E002C090E480E090932002B6
:20E1600019C0983079F0993031F480934B0221E432E080E00AC081E09A3009F080E021E47D
:20E1800032E003C02BE432E081E0309347022093460209C08F3F39F4988197FD8E8190E829
:20E1A0009093200207C09F81911104C09E81981708F4892F8093000110C08091200287FFAE
:20E1C0000CC0CE010E942BF58F3F21F48EE18093010103C081111092000110924802809186
:20E1E000010184FF57C0809100018F3F09F452C0C82F893008F0C8E08C1B80930001909168
:20E20000380288E8892780933802CC2309F44DC02091200227FF09C06C2F89E392E00E9481
:20E22000D0F4C82F893080F523C0809146029091470226FF0AC0A9E3B2E0FC012C2F349125
:20E240003D9331962150D9F708C0DC01E9E3F2E02C2F3D9131932150E1F72FEF2C0F30E004
:20E260002F5F3F4F820F931F90934702809346026C2F89E392E00E947BF1CC5FCC3041F099
:20E280008FEF8093000104C08FEF80930001CEE1C093010184E193B19C7071F48150D9F7D7
:20E2A000109249021092430207C060E089E392E00E947BF1C4E0E4CFDF91CF910895E9E604
:20E2C000F0E0808180638083EA9A0895A82FB92F80E090E041E050EA609530E009C02D91F0
:20E2E00082279795879510F084279527305EC8F36F5FA8F30895EADF8D939D930895CF935F
:20E30000CFB7CF93C3951B9BE9F71B9B09C01B9B07C01B9B05C01B9B03C01B9B01C0A1C05F
:20E32000DF93C0914502DD27C45BDD4F1B9B02C0DF91EBCF2F930F931F9303B12FEF03FBFC
:20E3400020F94F933F9313B14FEF012703FB21F93BE031C04E7F012F13B1216028C0102F39
:20E360004D7F2260000003B129C04B7F2460012F000013B12BC013B1477F28602AC04F7EBC
:20E3800003B120612CC04F7D13B120622FC04F7B03B1206432C0422703B149934FEF000030
:20E3A000102713FB20F913B11C70C9F1297F91F2012703FB21F903B1237F89F2315058F1EF
:20E3C000102713FB22F913B1277E79F2012703FB23F92F7C81F203B1102713FB24F92F79EB
:20E3E00071F200C013B1012703FB25F92F7359F200C003B1102713FB26F9223040F200C0E9
:20E4000013B1012703FB27F9243028F64F77206813B10000F9CF14E01CBB002717C03B5052
:20E420003195C31BD04014E01CBB0881033CE9F00B34D9F0209143021981110F1213EDCF23
:20E44000093641F10D3211F0013E39F700934A023F914F911F910F912F91DF91CCB3C2FD4F
:20E4600051CFCF91CFBFCF91189520914A02222379F310914802112311F5343012F1309384
:20E48000480220934402109145023BE0311B3093450217C00091480201308CF40AE53091CD
:20E4A000010134FD10C000930101C8E3D2E00FC02795A8F45150A9F4220F0000F9CF4AE5DA
:20E4C00003C042ED01C0432FC4E1D0E032E014B11C602B9A14B905B120E41CE05F9301270D
:20E4E00056E005B9279520F4515021F4220FF9CF012756E000003B5A05B9D0F2279528F45E
:20E50000515029F4220F0000F9CF012756E0279505B920F4515021F4220FF9CF012756E04B
:20E520002991332305B921F6037F10914902110FC651D04005B911F01093430214E01CBBCF
:20E54000086014B1137F402F437F5F9100C000C005B914B945B97CCF90E0981739F036B554
:20E5600026B5231B2C33E0F39F5FF7CF0895CF93C82F8A3019F48DE00E94B7F28091C00046
:20E5800085FFFCCFC093C6008C2FCC0F990BCF9108958091C00087FFFCCF8091C60090E073
:20E5A00008951092C5008DE48093C40088E18093C10086E08093C200E2E6F2E080E191E02B
:20E5C000938382839583848382E091E0918380830895FC018281813099F050F08230C1F499
:20E5E00082E491E090934702809346028EE008958CE691E0909347028093460284E00895C7
:20E6000080E591E090934702809346028CE108950895FC019381923039F0933069F09130DD
:20E6200071F480E391E002C08EE191E0909347028093460282E10895CF010C94E9F280E786
:20E6400091E09F938F9385E791E09F938F930E94D9F68EE791E09F938F930E94D9F68AE03E
:20E6600090E00E94EDF60F900F900F900F900F900F900895CF93DF93EC0189818130C1F41D
:20E6800080E791E09F938F9385E791E09F938F930E94D9F68FE991E09F938F930E94D9F6FE
:20E6A0008AE090E00E94EDF610922E0241981DC0823011F580E791E09F938F9385E791E0B2
:20E6C0009F938F930E94D9F68CE991E09F938F930E94D9F68AE090E00E94EDF681E090E09A
:20E6E0009093220280932102419A0F900F900F900F900F900F904AC1833009F05DC080E7CD
:20E7000091E09F938F9385E791E09F938F930E94D9F68D811F928F938C811F928F938B81C5
:20E720001F928F938A811F928F938AEA91E09F938F930E94D9F68AE090E00E94EDF68DB7DB
:20E740009EB70E960FB6F8949EBF0FBE8DBF8A81803501F118F4803331F018C1883571F070
:20E760008C3A09F013C1EC81F0E0EE0FFF1F81E280935700E491E093330206C18B81882346
:20E7800031F0883009F000C1E3E0F0E00EC0E1E0F0E00BC08B81882331F0883009F0F4C0EC
:20E7A000E2E0F0E002C0E0E0F0E089E080935700849180933302E8C0843029F580912E028A
:20E7C00081110EC08A819B81092E000CAA0BBB0B80932A0290932B02A0932C02B0932D0292
:20E7E0008E819F81909329028093280282E080932F0207B600FCFDCFF999FECF81E1809360
:20E800005700E89582C08730D1F480912E0281110EC08A819B81092E000CAA0BBB0B8093CD
:20E820002A0290932B02A0932C02B0932D028E819F81909329028093280283E064C0853093
:20E8400069F480E791E09F938F9385E791E09F938F930E94D9F681ED91E079C0863091F539
:20E8600080912E0281110EC08A819B81092E000CAA0BBB0B80932A0290932B02A0932C0222
:20E88000B0932D023C812D81822F8F7080932502822F807F40E1849FC0011124830F911D87
:20E8A000909327028093260220FF04C090932402809323028E819F819093290280932802B3
:20E8C00081E021C0883019F580912E0281110EC08A819B81092E000CAA0BBB0B80932A026B
:20E8E00090932B02A0932C02B0932D021092270210922602109225028E819F81909329021A
:20E900008093280284E080932F028FEF40C0893081F481E080932E028A819B81AC81BD8130
:20E9200080932A0290932B02A0932C02B0932D022DC08A30F1F480E791E09F938F9385E751
:20E9400091E09F938F930E94D9F68DED91E09F938F930E94D9F68AE090E00E94EDF61092D0
:20E9600030020F900F900F900F900F900F9081E00EC08F3759F481E08093300210923102EE
:20E98000109232021092330284E001C080E020E332E03093470220934602DF91CF910895BC
:20E9A000AF92BF92CF92DF92EF92FF920F931F93CF93DF93D0912F022EEF2D0F223008F084
:20E9C0003CC0C62F8C015C01A60EB11C0A151B0579F1C0902A02D0902B02E0902C02F0900B
:20E9E0002D02D23069F4C114D10481E0E806F10420F0EBBEF601879109C0F601849106C038
:20EA000080912A0290912B020E94ADF9F8018083FFEFCF1ADF0AEF0AFF0AC0922A02D09285
:20EA20002B02E0922C02F0922D020F5F1F4FCECFC83028F410922F0202C08FEF01C08C2F3C
:20EA4000DF91CF911F910F91FF90EF90DF90CF90BF90AF9008957F928F929F92AF92BF929A
:20EA6000CF92DF92EF92FF920F931F93CF93DF93EC0190912F029130A9F4062F2197912C43
:20EA800010E088248394A5E07A2EB0E7EB2EB1E0FB2E85E7C82E81E0D82E9BEEA92E91E092
:20EAA000B92E7AC0943049F3963009F0EDC080912A0290912B02A0912C02B0912D02860FDA
:20EAC000911DA11DB11D80932A0290932B02A0932C02B0932D028091280290912902861B72
:20EAE00091099093290280932802892B09F0CEC010922F0281E0CBC080912F02813009F00B
:20EB000093C020912602309127022115310509F046C0FF92EF92DF92CF920E94D9F680910E
:20EB20002D028F9380912C028F9380912B028F9380912A028F93BF92AF920E94D9F68AE0F7
:20EB400090E00E94EDF68DB79EB70A960FB6F8949EBF0FBE8DBF80912802909129020197A1
:20EB60009093290280932802892B09F465C080912A0290912B02A0912C02B0912D02019643
:20EB8000A11DB11D80932A0290932B02A0932C02B0932D02939421969012AECF73C0409186
:20EBA0002A0250912B0260912C0270912D0240FF0BC007B600FCFDCFF999FECF898190E064
:20EBC000982F8827E8810AC007B600FCFDCFF999FECF8A8190E0982F8827E9818E0F911D02
:20EBE0000C01FA0160935B0080925700E89511248091230290912402019790932402809333
:20EC00002302892B09F0A7CF07B600FCFDCFF999FECFFA0160935B0070925700E8953093E6
:20EC200024022093230297CF698180912A0290912B020E94B5F98FCF10922F028091250242
:20EC400081FF1EC0209123023091240280912602909127022817390799F007B600FCFDCF89
:20EC6000F999FECF80912A0290912B02A0912C02B0912D02FC01A0935B0070925700E8957A
:20EC800011E075CF812F03C08FEF01C080E0DF91CF911F910F91FF90EF90DF90CF90BF90E2
:20ECA000AF909F908F907F900895239A81E085BF15BE0C9400000895CF93DF93C4B714BE88
:20ECC000C1FF0E9455F681E085BF82E085BF80E791E09F938F9385E791E09F938F930E943D
:20ECE000D9F68C2F0C2E000C990B9F93CF9380E092E09F938F930E94D9F68AE090E00E94F9
:20ED0000EDF6239A8DB79EB708960FB6F8949EBF0FBE8DBF80E090E00196813E21EB92078A
:20ED200011F00000F9CF239883E085BD0E945FF180E791E09F938F9385E791E09F938F935B
:20ED40000E94D9F68CE092E09F938F930E94D9F68AE090E00E94EDF67894279A0F900F9035
:20ED60000F900F900F900F90C0E0D0E08091210290912202892B69F40E9467F02196C03697
:20ED80008AEED80799F72F9B02C02F98EDCF2F9AEBCFC0E0D0E00E9467F02196CF3F9FEF5E
:20EDA000D907C9F70E9455F680E090E0DF91CF910895CF93DF93CDB7DEB7AE014B5F5F4F95
:20EDC000FA0161917191AF0180916402909165020E94F3F6DF91CF91089560916402709145
:20EDE00065020C9413F92F923F924F925F926F927F928F929F92AF92BF92CF92DF92EF9253
:20EE0000FF920F931F93CF93DF93CDB7DEB72B970FB6F894DEBF0FBECDBF6C017B018A01A3
:20EE2000FC0117821682838181FFCCC1CE0101963C01F6019381F70193FD859193FF8191A3
:20EE40007F01882309F4BAC1853239F493FD859193FF81917F01853229F4B60190E00E94C4
:20EE600013F9E7CF912C212C312CFFE1F315D8F08B3279F038F4803279F08332A1F4232DB2
:20EE800020611DC08D3261F0803369F4232D216016C0832D8260382EE32DE4603E2E2AC0AB
:20EEA000F32DF8601DC037FC2DC020ED280F2A3040F08E32B9F436FC81C1232D2064322EFA
:20EEC00019C036FE06C08AE0989E200D1124922E11C0EAE02E9E200D1124222EF32DF06212
:20EEE0003F2E08C08C3621F4832D8068382E02C0883641F4F70193FD859193FF81917F0191
:20EF00008111B3CF982F9F7D9554933028F40C5F1F4F9FE399830DC0833631F0833771F0F9
:20EF2000833509F059C021C0F801808189830E5F1F4F88248394912C530113C02801F2E0A3
:20EF40004F0E511CF801A080B18036FE03C0692D70E002C06FEF7FEFC5010E9408F94C017C
:20EF60008201F32DFF773F2E16C0280122E0420E511CF801A080B18036FE03C0692D70E026
:20EF800002C06FEF7FEFC5010E94FDF84C01F32DF0683F2E820133FC1BC0822D90E088160A
:20EFA0009906B0F4B60180E290E00E9413F92A94F4CFF50137FC859137FE81915F01B601B9
:20EFC00090E00E9413F921102A9421E0821A91088114910471F7E8C0843611F0893641F504
:20EFE000F80137FE07C060817181828193810C5F1F4F08C060817181072E000C880B990B46
:20F000000E5F1F4FF32DFF763F2E97FF09C090958095709561957F4F8F4F9F4FF0683F2E20
:20F020002AE030E0A3010E944FF9882E861845C0853731F4232D2F7EB22E2AE030E025C012
:20F04000932D997FB92E8F36C1F018F4883579F0B5C0803719F0883721F0B0C0E92FE0617B
:20F06000BE2EB4FE0DC0FB2DF460BF2E09C034FE0AC0292F2660B22E06C028E030E005C096
:20F0800020E130E002C020E132E0F801B7FE07C060817181828193810C5F1F4F06C06081AB
:20F0A000718180E090E00E5F1F4FA3010E944FF9882E8618FB2DFF773F2E36FE0DC0232D75
:20F0C0002E7FA22E891458F434FE0BC032FC09C0832D8E7EA82E05C0B82CA32C03C0B82C25
:20F0E00001C0B92CA4FE0FC0FE01E80DF11D8081803321F49A2D997EA92E09C0A2FE06C04A
:20F10000B394B39404C08A2D867809F0B394A3FC11C0A0FE06C0B21488F4280C922C9B18ED
:20F120000EC0B21460F4B60180E290E00E9413F9B394F7CFB21418F42B1802C0982C212CBB
:20F14000A4FE10C0B60180E390E00E9413F9A2FE17C0A1FC03C088E790E002C088E590E0B0
:20F16000B6010CC08A2D867859F0A1FE02C08BE201C080E2A7FC8DE2B60190E00E9413F936
:20F18000891438F4B60180E390E00E9413F99A94F7CF8A94F301E80DF11D8081B60190E03D
:20F1A0000E9413F98110F5CF222009F442CEB60180E290E00E9413F92A94F6CFF601868145
:20F1C000978102C08FEF9FEF2B960FB6F894DEBF0FBECDBFDF91CF911F910F91FF90EF9013
:20F1E000DF90CF90BF90AF909F908F907F906F905F904F903F902F900895FC01059061501B
:20F2000070400110D8F7809590958E0F9F1F0895FC016150704001900110D8F78095909523
:20F220008E0F9F1F08950F931F93CF93DF93FB01238121FD03C08FEF9FEF2CC022FF16C03E
:20F2400046815781248135814217530744F4A081B1819D012F5F3F4F318320838C9326819F
:20F2600037812F5F3F4F3783268314C08B01EC01FB010084F185E02D0995892BE1F6D80105
:20F2800016968D919C911797019617969C938E931697CE01DF91CF911F910F910895FA0101
:20F2A000AA27283051F1203181F1E8946F936E7F6E5F7F4F8F4F9F4FAF4FB1E03ED0B4E01D
:20F2C0003CD0670F781F891F9A1FA11D680F791F8A1F911DA11D6A0F711D811D911DA11DC1
:20F2E00020D009F468943F912AE0269F11243019305D3193DEF6CF010895462F4770405DAD
:20F300004193B3E00FD0C9F7F6CF462F4F70405D4A3318F0495D31FD4052419302D0A9F720
:20F32000EACFB4E0A6959795879577956795BA95C9F700976105710508959B01AC010A2E55
:20F3400006945795479537952795BA95C9F7620F731F841F951FA01D0895F999FECF92BD52
:20F3600081BDF89A992780B50895262FF999FECF1FBA92BD81BD20BD0FB6F894FA9AF99ABC
:20F380000FBE01960895F894FFCFFF5A00000001000000000000C9F20000000000020000FB
:20F3A0000000B7F20000000009021200010100801909040000000000000012011001FF00BC
:20F3C0000008C016DC050401010200010E035500530042006100730070001C037700770019
:20F3E00077002E00660069007300630068006C002E00640065000403090462746C64002519
:20F400002D313073203A200061736B696E6720666F7220756E6B6E6F776E2064657363722C
:20F420006970746F7200646973636F6E6E656374696E67007472616E736D6974207265715C
:20F44000756573743A20253032782025303278202530327820253032782000656E61626C13
:20F46000652070726F67007365742073706920636C6F636B007772697465202530357820FE
:20F480006E6F74207061676564006D637573723A202530327800626F6F746C6F616465724C
:0AF4A00020696E6974746564000051
:00000001FF
